{
	"contracts/SmartContractWallet.sol": {
		"SmartContractWallet": {
			"abi": [
				{
					"inputs": [],
					"stateMutability": "nonpayable",
					"type": "constructor"
				},
				{
					"inputs": [
						{
							"internalType": "address",
							"name": "",
							"type": "address"
						}
					],
					"name": "allowance",
					"outputs": [
						{
							"internalType": "uint256",
							"name": "",
							"type": "uint256"
						}
					],
					"stateMutability": "view",
					"type": "function"
				},
				{
					"inputs": [],
					"name": "confirmationsFromGuardiansForReset",
					"outputs": [
						{
							"internalType": "uint256",
							"name": "",
							"type": "uint256"
						}
					],
					"stateMutability": "view",
					"type": "function"
				},
				{
					"inputs": [
						{
							"internalType": "address",
							"name": "",
							"type": "address"
						}
					],
					"name": "guardians",
					"outputs": [
						{
							"internalType": "bool",
							"name": "",
							"type": "bool"
						}
					],
					"stateMutability": "view",
					"type": "function"
				},
				{
					"inputs": [
						{
							"internalType": "address",
							"name": "",
							"type": "address"
						}
					],
					"name": "isAllowedToSend",
					"outputs": [
						{
							"internalType": "bool",
							"name": "",
							"type": "bool"
						}
					],
					"stateMutability": "view",
					"type": "function"
				},
				{
					"inputs": [],
					"name": "owner",
					"outputs": [
						{
							"internalType": "address payable",
							"name": "",
							"type": "address"
						}
					],
					"stateMutability": "view",
					"type": "function"
				},
				{
					"inputs": [
						{
							"internalType": "address payable",
							"name": "_newOwner",
							"type": "address"
						}
					],
					"name": "proposeNewOwner",
					"outputs": [],
					"stateMutability": "nonpayable",
					"type": "function"
				},
				{
					"inputs": [
						{
							"internalType": "address",
							"name": "_for",
							"type": "address"
						},
						{
							"internalType": "uint256",
							"name": "_amount",
							"type": "uint256"
						}
					],
					"name": "setAllowance",
					"outputs": [],
					"stateMutability": "nonpayable",
					"type": "function"
				},
				{
					"inputs": [
						{
							"internalType": "address",
							"name": "_guardian",
							"type": "address"
						},
						{
							"internalType": "bool",
							"name": "_isGuardian",
							"type": "bool"
						}
					],
					"name": "setGuardian",
					"outputs": [],
					"stateMutability": "nonpayable",
					"type": "function"
				},
				{
					"inputs": [
						{
							"internalType": "address payable",
							"name": "_to",
							"type": "address"
						},
						{
							"internalType": "uint256",
							"name": "_amount",
							"type": "uint256"
						},
						{
							"internalType": "bytes",
							"name": "_payload",
							"type": "bytes"
						}
					],
					"name": "transfer",
					"outputs": [
						{
							"internalType": "bytes",
							"name": "",
							"type": "bytes"
						}
					],
					"stateMutability": "nonpayable",
					"type": "function"
				},
				{
					"stateMutability": "payable",
					"type": "receive"
				}
			],
			"devdoc": {
				"kind": "dev",
				"methods": {},
				"version": 1
			},
			"evm": {
				"assembly": "    /* \"contracts/SmartContractWallet.sol\":221:2542  contract SmartContractWallet {... */\n  mstore(0x40, 0x80)\n    /* \"contracts/SmartContractWallet.sol\":644:702  constructor() {... */\n  callvalue\n  dup1\n  iszero\n  tag_1\n  jumpi\n  0x00\n  dup1\n  revert\ntag_1:\n  pop\n    /* \"contracts/SmartContractWallet.sol\":684:694  msg.sender */\n  caller\n    /* \"contracts/SmartContractWallet.sol\":668:673  owner */\n  0x00\n  dup1\n    /* \"contracts/SmartContractWallet.sol\":668:695  owner = payable(msg.sender) */\n  0x0100\n  exp\n  dup2\n  sload\n  dup2\n  0xffffffffffffffffffffffffffffffffffffffff\n  mul\n  not\n  and\n  swap1\n  dup4\n  0xffffffffffffffffffffffffffffffffffffffff\n  and\n  mul\n  or\n  swap1\n  sstore\n  pop\n    /* \"contracts/SmartContractWallet.sol\":221:2542  contract SmartContractWallet {... */\n  dataSize(sub_0)\n  dup1\n  dataOffset(sub_0)\n  0x00\n  codecopy\n  0x00\n  return\nstop\n\nsub_0: assembly {\n        /* \"contracts/SmartContractWallet.sol\":221:2542  contract SmartContractWallet {... */\n      mstore(0x40, 0x80)\n      jumpi(tag_1, lt(calldatasize, 0x04))\n      shr(0xe0, calldataload(0x00))\n      dup1\n      0x3e5beab9\n      gt\n      tag_12\n      jumpi\n      dup1\n      0x3e5beab9\n      eq\n      tag_7\n      jumpi\n      dup1\n      0x83012be1\n      eq\n      tag_8\n      jumpi\n      dup1\n      0x8da5cb5b\n      eq\n      tag_9\n      jumpi\n      dup1\n      0xb1f8100d\n      eq\n      tag_10\n      jumpi\n      dup1\n      0xbe45fd62\n      eq\n      tag_11\n      jumpi\n      jump(tag_2)\n    tag_12:\n      dup1\n      0x0633b14a\n      eq\n      tag_3\n      jumpi\n      dup1\n      0x0bc605ad\n      eq\n      tag_4\n      jumpi\n      dup1\n      0x2b8a1c5a\n      eq\n      tag_5\n      jumpi\n      dup1\n      0x310ec4a7\n      eq\n      tag_6\n      jumpi\n      jump(tag_2)\n    tag_1:\n      jumpi(tag_2, calldatasize)\n      stop\n    tag_2:\n      0x00\n      dup1\n      revert\n        /* \"contracts/SmartContractWallet.sol\":393:434  mapping(address => bool) public guardians */\n    tag_3:\n      callvalue\n      dup1\n      iszero\n      tag_15\n      jumpi\n      0x00\n      dup1\n      revert\n    tag_15:\n      pop\n      tag_16\n      0x04\n      dup1\n      calldatasize\n      sub\n      dup2\n      add\n      swap1\n      tag_17\n      swap2\n      swap1\n      tag_18\n      jump\t// in\n    tag_17:\n      tag_19\n      jump\t// in\n    tag_16:\n      mload(0x40)\n      tag_20\n      swap2\n      swap1\n      tag_21\n      jump\t// in\n    tag_20:\n      mload(0x40)\n      dup1\n      swap2\n      sub\n      swap1\n      return\n        /* \"contracts/SmartContractWallet.sol\":339:386  mapping(address => bool) public isAllowedToSend */\n    tag_4:\n      callvalue\n      dup1\n      iszero\n      tag_22\n      jumpi\n      0x00\n      dup1\n      revert\n    tag_22:\n      pop\n      tag_23\n      0x04\n      dup1\n      calldatasize\n      sub\n      dup2\n      add\n      swap1\n      tag_24\n      swap2\n      swap1\n      tag_18\n      jump\t// in\n    tag_24:\n      tag_25\n      jump\t// in\n    tag_23:\n      mload(0x40)\n      tag_26\n      swap2\n      swap1\n      tag_21\n      jump\t// in\n    tag_26:\n      mload(0x40)\n      dup1\n      swap2\n      sub\n      swap1\n      return\n        /* \"contracts/SmartContractWallet.sol\":708:897  function setGuardian(address _guardian, bool _isGuardian) public {... */\n    tag_5:\n      callvalue\n      dup1\n      iszero\n      tag_27\n      jumpi\n      0x00\n      dup1\n      revert\n    tag_27:\n      pop\n      tag_28\n      0x04\n      dup1\n      calldatasize\n      sub\n      dup2\n      add\n      swap1\n      tag_29\n      swap2\n      swap1\n      tag_30\n      jump\t// in\n    tag_29:\n      tag_31\n      jump\t// in\n    tag_28:\n      stop\n        /* \"contracts/SmartContractWallet.sol\":1484:1796  function setAllowance(address _for, uint _amount) public {... */\n    tag_6:\n      callvalue\n      dup1\n      iszero\n      tag_32\n      jumpi\n      0x00\n      dup1\n      revert\n    tag_32:\n      pop\n      tag_33\n      0x04\n      dup1\n      calldatasize\n      sub\n      dup2\n      add\n      swap1\n      tag_34\n      swap2\n      swap1\n      tag_35\n      jump\t// in\n    tag_34:\n      tag_36\n      jump\t// in\n    tag_33:\n      stop\n        /* \"contracts/SmartContractWallet.sol\":292:333  mapping(address => uint) public allowance */\n    tag_7:\n      callvalue\n      dup1\n      iszero\n      tag_37\n      jumpi\n      0x00\n      dup1\n      revert\n    tag_37:\n      pop\n      tag_38\n      0x04\n      dup1\n      calldatasize\n      sub\n      dup2\n      add\n      swap1\n      tag_39\n      swap2\n      swap1\n      tag_18\n      jump\t// in\n    tag_39:\n      tag_40\n      jump\t// in\n    tag_38:\n      mload(0x40)\n      tag_41\n      swap2\n      swap1\n      tag_42\n      jump\t// in\n    tag_41:\n      mload(0x40)\n      dup1\n      swap2\n      sub\n      swap1\n      return\n        /* \"contracts/SmartContractWallet.sol\":578:637  uint public constant confirmationsFromGuardiansForReset = 3 */\n    tag_8:\n      callvalue\n      dup1\n      iszero\n      tag_43\n      jumpi\n      0x00\n      dup1\n      revert\n    tag_43:\n      pop\n      tag_44\n      tag_45\n      jump\t// in\n    tag_44:\n      mload(0x40)\n      tag_46\n      swap2\n      swap1\n      tag_42\n      jump\t// in\n    tag_46:\n      mload(0x40)\n      dup1\n      swap2\n      sub\n      swap1\n      return\n        /* \"contracts/SmartContractWallet.sol\":257:285  address payable public owner */\n    tag_9:\n      callvalue\n      dup1\n      iszero\n      tag_47\n      jumpi\n      0x00\n      dup1\n      revert\n    tag_47:\n      pop\n      tag_48\n      tag_49\n      jump\t// in\n    tag_48:\n      mload(0x40)\n      tag_50\n      swap2\n      swap1\n      tag_51\n      jump\t// in\n    tag_50:\n      mload(0x40)\n      dup1\n      swap2\n      sub\n      swap1\n      return\n        /* \"contracts/SmartContractWallet.sol\":903:1478  function proposeNewOwner(address payable _newOwner) public {... */\n    tag_10:\n      callvalue\n      dup1\n      iszero\n      tag_52\n      jumpi\n      0x00\n      dup1\n      revert\n    tag_52:\n      pop\n      tag_53\n      0x04\n      dup1\n      calldatasize\n      sub\n      dup2\n      add\n      swap1\n      tag_54\n      swap2\n      swap1\n      tag_55\n      jump\t// in\n    tag_54:\n      tag_56\n      jump\t// in\n    tag_53:\n      stop\n        /* \"contracts/SmartContractWallet.sol\":1802:2505  function transfer(address payable _to, uint _amount, bytes memory _payload) public returns(bytes memory) {... */\n    tag_11:\n      callvalue\n      dup1\n      iszero\n      tag_57\n      jumpi\n      0x00\n      dup1\n      revert\n    tag_57:\n      pop\n      tag_58\n      0x04\n      dup1\n      calldatasize\n      sub\n      dup2\n      add\n      swap1\n      tag_59\n      swap2\n      swap1\n      tag_60\n      jump\t// in\n    tag_59:\n      tag_61\n      jump\t// in\n    tag_58:\n      mload(0x40)\n      tag_62\n      swap2\n      swap1\n      tag_63\n      jump\t// in\n    tag_62:\n      mload(0x40)\n      dup1\n      swap2\n      sub\n      swap1\n      return\n        /* \"contracts/SmartContractWallet.sol\":393:434  mapping(address => bool) public guardians */\n    tag_19:\n      mstore(0x20, 0x03)\n      dup1\n      0x00\n      mstore\n      keccak256(0x00, 0x40)\n      0x00\n      swap2\n      pop\n      sload\n      swap1\n      0x0100\n      exp\n      swap1\n      div\n      0xff\n      and\n      dup2\n      jump\t// out\n        /* \"contracts/SmartContractWallet.sol\":339:386  mapping(address => bool) public isAllowedToSend */\n    tag_25:\n      mstore(0x20, 0x02)\n      dup1\n      0x00\n      mstore\n      keccak256(0x00, 0x40)\n      0x00\n      swap2\n      pop\n      sload\n      swap1\n      0x0100\n      exp\n      swap1\n      div\n      0xff\n      and\n      dup2\n      jump\t// out\n        /* \"contracts/SmartContractWallet.sol\":708:897  function setGuardian(address _guardian, bool _isGuardian) public {... */\n    tag_31:\n        /* \"contracts/SmartContractWallet.sol\":805:810  owner */\n      0x00\n      dup1\n      sload\n      swap1\n      0x0100\n      exp\n      swap1\n      div\n      0xffffffffffffffffffffffffffffffffffffffff\n      and\n        /* \"contracts/SmartContractWallet.sol\":791:810  msg.sender == owner */\n      0xffffffffffffffffffffffffffffffffffffffff\n      and\n        /* \"contracts/SmartContractWallet.sol\":791:801  msg.sender */\n      caller\n        /* \"contracts/SmartContractWallet.sol\":791:810  msg.sender == owner */\n      0xffffffffffffffffffffffffffffffffffffffff\n      and\n      eq\n        /* \"contracts/SmartContractWallet.sol\":783:846  require(msg.sender == owner, \"you are not the owner, aborting\") */\n      tag_65\n      jumpi\n      mload(0x40)\n      0x08c379a000000000000000000000000000000000000000000000000000000000\n      dup2\n      mstore\n      0x04\n      add\n      tag_66\n      swap1\n      tag_67\n      jump\t// in\n    tag_66:\n      mload(0x40)\n      dup1\n      swap2\n      sub\n      swap1\n      revert\n    tag_65:\n        /* \"contracts/SmartContractWallet.sol\":879:890  _isGuardian */\n      dup1\n        /* \"contracts/SmartContractWallet.sol\":856:865  guardians */\n      0x03\n        /* \"contracts/SmartContractWallet.sol\":856:876  guardians[_guardian] */\n      0x00\n        /* \"contracts/SmartContractWallet.sol\":866:875  _guardian */\n      dup5\n        /* \"contracts/SmartContractWallet.sol\":856:876  guardians[_guardian] */\n      0xffffffffffffffffffffffffffffffffffffffff\n      and\n      0xffffffffffffffffffffffffffffffffffffffff\n      and\n      dup2\n      mstore\n      0x20\n      add\n      swap1\n      dup2\n      mstore\n      0x20\n      add\n      0x00\n      keccak256\n      0x00\n        /* \"contracts/SmartContractWallet.sol\":856:890  guardians[_guardian] = _isGuardian */\n      0x0100\n      exp\n      dup2\n      sload\n      dup2\n      0xff\n      mul\n      not\n      and\n      swap1\n      dup4\n      iszero\n      iszero\n      mul\n      or\n      swap1\n      sstore\n      pop\n        /* \"contracts/SmartContractWallet.sol\":708:897  function setGuardian(address _guardian, bool _isGuardian) public {... */\n      pop\n      pop\n      jump\t// out\n        /* \"contracts/SmartContractWallet.sol\":1484:1796  function setAllowance(address _for, uint _amount) public {... */\n    tag_36:\n        /* \"contracts/SmartContractWallet.sol\":1573:1578  owner */\n      0x00\n      dup1\n      sload\n      swap1\n      0x0100\n      exp\n      swap1\n      div\n      0xffffffffffffffffffffffffffffffffffffffff\n      and\n        /* \"contracts/SmartContractWallet.sol\":1559:1578  msg.sender == owner */\n      0xffffffffffffffffffffffffffffffffffffffff\n      and\n        /* \"contracts/SmartContractWallet.sol\":1559:1569  msg.sender */\n      caller\n        /* \"contracts/SmartContractWallet.sol\":1559:1578  msg.sender == owner */\n      0xffffffffffffffffffffffffffffffffffffffff\n      and\n      eq\n        /* \"contracts/SmartContractWallet.sol\":1551:1614  require(msg.sender == owner, \"you are not the owner, aborting\") */\n      tag_69\n      jumpi\n      mload(0x40)\n      0x08c379a000000000000000000000000000000000000000000000000000000000\n      dup2\n      mstore\n      0x04\n      add\n      tag_70\n      swap1\n      tag_67\n      jump\t// in\n    tag_70:\n      mload(0x40)\n      dup1\n      swap2\n      sub\n      swap1\n      revert\n    tag_69:\n        /* \"contracts/SmartContractWallet.sol\":1642:1649  _amount */\n      dup1\n        /* \"contracts/SmartContractWallet.sol\":1624:1633  allowance */\n      0x01\n        /* \"contracts/SmartContractWallet.sol\":1624:1639  allowance[_for] */\n      0x00\n        /* \"contracts/SmartContractWallet.sol\":1634:1638  _for */\n      dup5\n        /* \"contracts/SmartContractWallet.sol\":1624:1639  allowance[_for] */\n      0xffffffffffffffffffffffffffffffffffffffff\n      and\n      0xffffffffffffffffffffffffffffffffffffffff\n      and\n      dup2\n      mstore\n      0x20\n      add\n      swap1\n      dup2\n      mstore\n      0x20\n      add\n      0x00\n      keccak256\n        /* \"contracts/SmartContractWallet.sol\":1624:1649  allowance[_for] = _amount */\n      dup2\n      swap1\n      sstore\n      pop\n        /* \"contracts/SmartContractWallet.sol\":1674:1675  0 */\n      0x00\n        /* \"contracts/SmartContractWallet.sol\":1664:1671  _amount */\n      dup2\n        /* \"contracts/SmartContractWallet.sol\":1664:1675  _amount > 0 */\n      gt\n        /* \"contracts/SmartContractWallet.sol\":1660:1790  if (_amount > 0) {... */\n      iszero\n      tag_71\n      jumpi\n        /* \"contracts/SmartContractWallet.sol\":1715:1719  true */\n      0x01\n        /* \"contracts/SmartContractWallet.sol\":1691:1706  isAllowedToSend */\n      0x02\n        /* \"contracts/SmartContractWallet.sol\":1691:1712  isAllowedToSend[_for] */\n      0x00\n        /* \"contracts/SmartContractWallet.sol\":1707:1711  _for */\n      dup5\n        /* \"contracts/SmartContractWallet.sol\":1691:1712  isAllowedToSend[_for] */\n      0xffffffffffffffffffffffffffffffffffffffff\n      and\n      0xffffffffffffffffffffffffffffffffffffffff\n      and\n      dup2\n      mstore\n      0x20\n      add\n      swap1\n      dup2\n      mstore\n      0x20\n      add\n      0x00\n      keccak256\n      0x00\n        /* \"contracts/SmartContractWallet.sol\":1691:1719  isAllowedToSend[_for] = true */\n      0x0100\n      exp\n      dup2\n      sload\n      dup2\n      0xff\n      mul\n      not\n      and\n      swap1\n      dup4\n      iszero\n      iszero\n      mul\n      or\n      swap1\n      sstore\n      pop\n        /* \"contracts/SmartContractWallet.sol\":1660:1790  if (_amount > 0) {... */\n      jump(tag_72)\n    tag_71:\n        /* \"contracts/SmartContractWallet.sol\":1774:1779  false */\n      0x00\n        /* \"contracts/SmartContractWallet.sol\":1750:1765  isAllowedToSend */\n      0x02\n        /* \"contracts/SmartContractWallet.sol\":1750:1771  isAllowedToSend[_for] */\n      0x00\n        /* \"contracts/SmartContractWallet.sol\":1766:1770  _for */\n      dup5\n        /* \"contracts/SmartContractWallet.sol\":1750:1771  isAllowedToSend[_for] */\n      0xffffffffffffffffffffffffffffffffffffffff\n      and\n      0xffffffffffffffffffffffffffffffffffffffff\n      and\n      dup2\n      mstore\n      0x20\n      add\n      swap1\n      dup2\n      mstore\n      0x20\n      add\n      0x00\n      keccak256\n      0x00\n        /* \"contracts/SmartContractWallet.sol\":1750:1779  isAllowedToSend[_for] = false */\n      0x0100\n      exp\n      dup2\n      sload\n      dup2\n      0xff\n      mul\n      not\n      and\n      swap1\n      dup4\n      iszero\n      iszero\n      mul\n      or\n      swap1\n      sstore\n      pop\n        /* \"contracts/SmartContractWallet.sol\":1660:1790  if (_amount > 0) {... */\n    tag_72:\n        /* \"contracts/SmartContractWallet.sol\":1484:1796  function setAllowance(address _for, uint _amount) public {... */\n      pop\n      pop\n      jump\t// out\n        /* \"contracts/SmartContractWallet.sol\":292:333  mapping(address => uint) public allowance */\n    tag_40:\n      mstore(0x20, 0x01)\n      dup1\n      0x00\n      mstore\n      keccak256(0x00, 0x40)\n      0x00\n      swap2\n      pop\n      swap1\n      pop\n      sload\n      dup2\n      jump\t// out\n        /* \"contracts/SmartContractWallet.sol\":578:637  uint public constant confirmationsFromGuardiansForReset = 3 */\n    tag_45:\n        /* \"contracts/SmartContractWallet.sol\":636:637  3 */\n      0x03\n        /* \"contracts/SmartContractWallet.sol\":578:637  uint public constant confirmationsFromGuardiansForReset = 3 */\n      dup2\n      jump\t// out\n        /* \"contracts/SmartContractWallet.sol\":257:285  address payable public owner */\n    tag_49:\n      0x00\n      dup1\n      sload\n      swap1\n      0x0100\n      exp\n      swap1\n      div\n      0xffffffffffffffffffffffffffffffffffffffff\n      and\n      dup2\n      jump\t// out\n        /* \"contracts/SmartContractWallet.sol\":903:1478  function proposeNewOwner(address payable _newOwner) public {... */\n    tag_56:\n        /* \"contracts/SmartContractWallet.sol\":980:989  guardians */\n      0x03\n        /* \"contracts/SmartContractWallet.sol\":980:1001  guardians[msg.sender] */\n      0x00\n        /* \"contracts/SmartContractWallet.sol\":990:1000  msg.sender */\n      caller\n        /* \"contracts/SmartContractWallet.sol\":980:1001  guardians[msg.sender] */\n      0xffffffffffffffffffffffffffffffffffffffff\n      and\n      0xffffffffffffffffffffffffffffffffffffffff\n      and\n      dup2\n      mstore\n      0x20\n      add\n      swap1\n      dup2\n      mstore\n      0x20\n      add\n      0x00\n      keccak256\n      0x00\n      swap1\n      sload\n      swap1\n      0x0100\n      exp\n      swap1\n      div\n      0xff\n      and\n        /* \"contracts/SmartContractWallet.sol\":972:1051  require(guardians[msg.sender], \"You are not guardian of this wallet, aborting\") */\n      tag_74\n      jumpi\n      mload(0x40)\n      0x08c379a000000000000000000000000000000000000000000000000000000000\n      dup2\n      mstore\n      0x04\n      add\n      tag_75\n      swap1\n      tag_76\n      jump\t// in\n    tag_75:\n      mload(0x40)\n      dup1\n      swap2\n      sub\n      swap1\n      revert\n    tag_74:\n        /* \"contracts/SmartContractWallet.sol\":1122:1127  false */\n      0x00\n        /* \"contracts/SmartContractWallet.sol\":1069:1127  nextOwnerGuardianVotedBool[_newOwner][msg.sender] == false */\n      iszero\n      iszero\n        /* \"contracts/SmartContractWallet.sol\":1069:1095  nextOwnerGuardianVotedBool */\n      0x05\n        /* \"contracts/SmartContractWallet.sol\":1069:1106  nextOwnerGuardianVotedBool[_newOwner] */\n      0x00\n        /* \"contracts/SmartContractWallet.sol\":1096:1105  _newOwner */\n      dup4\n        /* \"contracts/SmartContractWallet.sol\":1069:1106  nextOwnerGuardianVotedBool[_newOwner] */\n      0xffffffffffffffffffffffffffffffffffffffff\n      and\n      0xffffffffffffffffffffffffffffffffffffffff\n      and\n      dup2\n      mstore\n      0x20\n      add\n      swap1\n      dup2\n      mstore\n      0x20\n      add\n      0x00\n      keccak256\n        /* \"contracts/SmartContractWallet.sol\":1069:1118  nextOwnerGuardianVotedBool[_newOwner][msg.sender] */\n      0x00\n        /* \"contracts/SmartContractWallet.sol\":1107:1117  msg.sender */\n      caller\n        /* \"contracts/SmartContractWallet.sol\":1069:1118  nextOwnerGuardianVotedBool[_newOwner][msg.sender] */\n      0xffffffffffffffffffffffffffffffffffffffff\n      and\n      0xffffffffffffffffffffffffffffffffffffffff\n      and\n      dup2\n      mstore\n      0x20\n      add\n      swap1\n      dup2\n      mstore\n      0x20\n      add\n      0x00\n      keccak256\n      0x00\n      swap1\n      sload\n      swap1\n      0x0100\n      exp\n      swap1\n      div\n      0xff\n      and\n        /* \"contracts/SmartContractWallet.sol\":1069:1127  nextOwnerGuardianVotedBool[_newOwner][msg.sender] == false */\n      iszero\n      iszero\n      eq\n        /* \"contracts/SmartContractWallet.sol\":1061:1159  require(nextOwnerGuardianVotedBool[_newOwner][msg.sender] == false, \"You already voted, aborting\") */\n      tag_77\n      jumpi\n      mload(0x40)\n      0x08c379a000000000000000000000000000000000000000000000000000000000\n      dup2\n      mstore\n      0x04\n      add\n      tag_78\n      swap1\n      tag_79\n      jump\t// in\n    tag_78:\n      mload(0x40)\n      dup1\n      swap2\n      sub\n      swap1\n      revert\n    tag_77:\n        /* \"contracts/SmartContractWallet.sol\":1186:1195  nextOwner */\n      0x04\n      0x00\n      swap1\n      sload\n      swap1\n      0x0100\n      exp\n      swap1\n      div\n      0xffffffffffffffffffffffffffffffffffffffff\n      and\n        /* \"contracts/SmartContractWallet.sol\":1173:1195  _newOwner != nextOwner */\n      0xffffffffffffffffffffffffffffffffffffffff\n      and\n        /* \"contracts/SmartContractWallet.sol\":1173:1182  _newOwner */\n      dup2\n        /* \"contracts/SmartContractWallet.sol\":1173:1195  _newOwner != nextOwner */\n      0xffffffffffffffffffffffffffffffffffffffff\n      and\n      eq\n        /* \"contracts/SmartContractWallet.sol\":1169:1280  if (_newOwner != nextOwner) {... */\n      tag_80\n      jumpi\n        /* \"contracts/SmartContractWallet.sol\":1223:1232  _newOwner */\n      dup1\n        /* \"contracts/SmartContractWallet.sol\":1211:1220  nextOwner */\n      0x04\n      0x00\n        /* \"contracts/SmartContractWallet.sol\":1211:1232  nextOwner = _newOwner */\n      0x0100\n      exp\n      dup2\n      sload\n      dup2\n      0xffffffffffffffffffffffffffffffffffffffff\n      mul\n      not\n      and\n      swap1\n      dup4\n      0xffffffffffffffffffffffffffffffffffffffff\n      and\n      mul\n      or\n      swap1\n      sstore\n      pop\n        /* \"contracts/SmartContractWallet.sol\":1268:1269  0 */\n      0x00\n        /* \"contracts/SmartContractWallet.sol\":1246:1265  guardiansResetCount */\n      0x06\n        /* \"contracts/SmartContractWallet.sol\":1246:1269  guardiansResetCount = 0 */\n      dup2\n      swap1\n      sstore\n      pop\n        /* \"contracts/SmartContractWallet.sol\":1169:1280  if (_newOwner != nextOwner) {... */\n    tag_80:\n        /* \"contracts/SmartContractWallet.sol\":1290:1309  guardiansResetCount */\n      0x06\n      0x00\n        /* \"contracts/SmartContractWallet.sol\":1290:1311  guardiansResetCount++ */\n      dup2\n      sload\n      dup1\n      swap3\n      swap2\n      swap1\n      tag_81\n      swap1\n      tag_82\n      jump\t// in\n    tag_81:\n      swap2\n      swap1\n      pop\n      sstore\n      pop\n        /* \"contracts/SmartContractWallet.sol\":636:637  3 */\n      0x03\n        /* \"contracts/SmartContractWallet.sol\":1326:1345  guardiansResetCount */\n      sload(0x06)\n        /* \"contracts/SmartContractWallet.sol\":1326:1383  guardiansResetCount >= confirmationsFromGuardiansForReset */\n      lt\n        /* \"contracts/SmartContractWallet.sol\":1322:1472  if (guardiansResetCount >= confirmationsFromGuardiansForReset) {... */\n      tag_83\n      jumpi\n        /* \"contracts/SmartContractWallet.sol\":1407:1416  nextOwner */\n      0x04\n      0x00\n      swap1\n      sload\n      swap1\n      0x0100\n      exp\n      swap1\n      div\n      0xffffffffffffffffffffffffffffffffffffffff\n      and\n        /* \"contracts/SmartContractWallet.sol\":1399:1404  owner */\n      0x00\n      dup1\n        /* \"contracts/SmartContractWallet.sol\":1399:1416  owner = nextOwner */\n      0x0100\n      exp\n      dup2\n      sload\n      dup2\n      0xffffffffffffffffffffffffffffffffffffffff\n      mul\n      not\n      and\n      swap1\n      dup4\n      0xffffffffffffffffffffffffffffffffffffffff\n      and\n      mul\n      or\n      swap1\n      sstore\n      pop\n        /* \"contracts/SmartContractWallet.sol\":1458:1459  0 */\n      0x00\n        /* \"contracts/SmartContractWallet.sol\":1430:1439  nextOwner */\n      0x04\n      0x00\n        /* \"contracts/SmartContractWallet.sol\":1430:1461  nextOwner = payable(address(0)) */\n      0x0100\n      exp\n      dup2\n      sload\n      dup2\n      0xffffffffffffffffffffffffffffffffffffffff\n      mul\n      not\n      and\n      swap1\n      dup4\n      0xffffffffffffffffffffffffffffffffffffffff\n      and\n      mul\n      or\n      swap1\n      sstore\n      pop\n        /* \"contracts/SmartContractWallet.sol\":1322:1472  if (guardiansResetCount >= confirmationsFromGuardiansForReset) {... */\n    tag_83:\n        /* \"contracts/SmartContractWallet.sol\":903:1478  function proposeNewOwner(address payable _newOwner) public {... */\n      pop\n      jump\t// out\n        /* \"contracts/SmartContractWallet.sol\":1802:2505  function transfer(address payable _to, uint _amount, bytes memory _payload) public returns(bytes memory) {... */\n    tag_61:\n        /* \"contracts/SmartContractWallet.sol\":1893:1905  bytes memory */\n      0x60\n        /* \"contracts/SmartContractWallet.sol\":2012:2017  owner */\n      0x00\n      dup1\n      sload\n      swap1\n      0x0100\n      exp\n      swap1\n      div\n      0xffffffffffffffffffffffffffffffffffffffff\n      and\n        /* \"contracts/SmartContractWallet.sol\":1998:2017  msg.sender != owner */\n      0xffffffffffffffffffffffffffffffffffffffff\n      and\n        /* \"contracts/SmartContractWallet.sol\":1998:2008  msg.sender */\n      caller\n        /* \"contracts/SmartContractWallet.sol\":1998:2017  msg.sender != owner */\n      0xffffffffffffffffffffffffffffffffffffffff\n      and\n      eq\n        /* \"contracts/SmartContractWallet.sol\":1994:2322  if (msg.sender != owner) {... */\n      tag_85\n      jumpi\n        /* \"contracts/SmartContractWallet.sol\":2041:2056  isAllowedToSend */\n      0x02\n        /* \"contracts/SmartContractWallet.sol\":2041:2068  isAllowedToSend[msg.sender] */\n      0x00\n        /* \"contracts/SmartContractWallet.sol\":2057:2067  msg.sender */\n      caller\n        /* \"contracts/SmartContractWallet.sol\":2041:2068  isAllowedToSend[msg.sender] */\n      0xffffffffffffffffffffffffffffffffffffffff\n      and\n      0xffffffffffffffffffffffffffffffffffffffff\n      and\n      dup2\n      mstore\n      0x20\n      add\n      swap1\n      dup2\n      mstore\n      0x20\n      add\n      0x00\n      keccak256\n      0x00\n      swap1\n      sload\n      swap1\n      0x0100\n      exp\n      swap1\n      div\n      0xff\n      and\n        /* \"contracts/SmartContractWallet.sol\":2033:2144  require(isAllowedToSend[msg.sender], \"You are not allowed to send anything from this smart contract, aborting\") */\n      tag_86\n      jumpi\n      mload(0x40)\n      0x08c379a000000000000000000000000000000000000000000000000000000000\n      dup2\n      mstore\n      0x04\n      add\n      tag_87\n      swap1\n      tag_88\n      jump\t// in\n    tag_87:\n      mload(0x40)\n      dup1\n      swap2\n      sub\n      swap1\n      revert\n    tag_86:\n        /* \"contracts/SmartContractWallet.sol\":2191:2198  _amount */\n      dup3\n        /* \"contracts/SmartContractWallet.sol\":2166:2175  allowance */\n      0x01\n        /* \"contracts/SmartContractWallet.sol\":2166:2187  allowance[msg.sender] */\n      0x00\n        /* \"contracts/SmartContractWallet.sol\":2176:2186  msg.sender */\n      caller\n        /* \"contracts/SmartContractWallet.sol\":2166:2187  allowance[msg.sender] */\n      0xffffffffffffffffffffffffffffffffffffffff\n      and\n      0xffffffffffffffffffffffffffffffffffffffff\n      and\n      dup2\n      mstore\n      0x20\n      add\n      swap1\n      dup2\n      mstore\n      0x20\n      add\n      0x00\n      keccak256\n      sload\n        /* \"contracts/SmartContractWallet.sol\":2166:2198  allowance[msg.sender] >= _amount */\n      lt\n      iszero\n        /* \"contracts/SmartContractWallet.sol\":2158:2264  require(allowance[msg.sender] >= _amount, \"You are trying to send more than you are allowed to, aborting\") */\n      tag_89\n      jumpi\n      mload(0x40)\n      0x08c379a000000000000000000000000000000000000000000000000000000000\n      dup2\n      mstore\n      0x04\n      add\n      tag_90\n      swap1\n      tag_91\n      jump\t// in\n    tag_90:\n      mload(0x40)\n      dup1\n      swap2\n      sub\n      swap1\n      revert\n    tag_89:\n        /* \"contracts/SmartContractWallet.sol\":2304:2311  _amount */\n      dup3\n        /* \"contracts/SmartContractWallet.sol\":2279:2288  allowance */\n      0x01\n        /* \"contracts/SmartContractWallet.sol\":2279:2300  allowance[msg.sender] */\n      0x00\n        /* \"contracts/SmartContractWallet.sol\":2289:2299  msg.sender */\n      caller\n        /* \"contracts/SmartContractWallet.sol\":2279:2300  allowance[msg.sender] */\n      0xffffffffffffffffffffffffffffffffffffffff\n      and\n      0xffffffffffffffffffffffffffffffffffffffff\n      and\n      dup2\n      mstore\n      0x20\n      add\n      swap1\n      dup2\n      mstore\n      0x20\n      add\n      0x00\n      keccak256\n      0x00\n        /* \"contracts/SmartContractWallet.sol\":2279:2311  allowance[msg.sender] -= _amount */\n      dup3\n      dup3\n      sload\n      tag_92\n      swap2\n      swap1\n      tag_93\n      jump\t// in\n    tag_92:\n      swap3\n      pop\n      pop\n      dup2\n      swap1\n      sstore\n      pop\n        /* \"contracts/SmartContractWallet.sol\":1994:2322  if (msg.sender != owner) {... */\n    tag_85:\n        /* \"contracts/SmartContractWallet.sol\":2333:2345  bool success */\n      0x00\n        /* \"contracts/SmartContractWallet.sol\":2347:2370  bytes memory returnData */\n      dup1\n        /* \"contracts/SmartContractWallet.sol\":2374:2377  _to */\n      dup6\n        /* \"contracts/SmartContractWallet.sol\":2374:2382  _to.call */\n      0xffffffffffffffffffffffffffffffffffffffff\n      and\n        /* \"contracts/SmartContractWallet.sol\":2390:2397  _amount */\n      dup6\n        /* \"contracts/SmartContractWallet.sol\":2399:2407  _payload */\n      dup6\n        /* \"contracts/SmartContractWallet.sol\":2374:2408  _to.call{value: _amount}(_payload) */\n      mload(0x40)\n      tag_94\n      swap2\n      swap1\n      tag_95\n      jump\t// in\n    tag_94:\n      0x00\n      mload(0x40)\n      dup1\n      dup4\n      sub\n      dup2\n      dup6\n      dup8\n      gas\n      call\n      swap3\n      pop\n      pop\n      pop\n      returndatasize\n      dup1\n      0x00\n      dup2\n      eq\n      tag_98\n      jumpi\n      mload(0x40)\n      swap2\n      pop\n      and(add(returndatasize, 0x3f), not(0x1f))\n      dup3\n      add\n      0x40\n      mstore\n      returndatasize\n      dup3\n      mstore\n      returndatasize\n      0x00\n      0x20\n      dup5\n      add\n      returndatacopy\n      jump(tag_97)\n    tag_98:\n      0x60\n      swap2\n      pop\n    tag_97:\n      pop\n        /* \"contracts/SmartContractWallet.sol\":2332:2408  (bool success, bytes memory returnData) = _to.call{value: _amount}(_payload) */\n      swap2\n      pop\n      swap2\n      pop\n        /* \"contracts/SmartContractWallet.sol\":2426:2433  success */\n      dup2\n        /* \"contracts/SmartContractWallet.sol\":2418:2471  require(success, \"Aborting, call was not successful\") */\n      tag_99\n      jumpi\n      mload(0x40)\n      0x08c379a000000000000000000000000000000000000000000000000000000000\n      dup2\n      mstore\n      0x04\n      add\n      tag_100\n      swap1\n      tag_101\n      jump\t// in\n    tag_100:\n      mload(0x40)\n      dup1\n      swap2\n      sub\n      swap1\n      revert\n    tag_99:\n        /* \"contracts/SmartContractWallet.sol\":2488:2498  returnData */\n      dup1\n        /* \"contracts/SmartContractWallet.sol\":2481:2498  return returnData */\n      swap3\n      pop\n      pop\n      pop\n        /* \"contracts/SmartContractWallet.sol\":1802:2505  function transfer(address payable _to, uint _amount, bytes memory _payload) public returns(bytes memory) {... */\n      swap4\n      swap3\n      pop\n      pop\n      pop\n      jump\t// out\n        /* \"#utility.yul\":7:82   */\n    tag_102:\n        /* \"#utility.yul\":40:46   */\n      0x00\n        /* \"#utility.yul\":73:75   */\n      0x40\n        /* \"#utility.yul\":67:76   */\n      mload\n        /* \"#utility.yul\":57:76   */\n      swap1\n      pop\n        /* \"#utility.yul\":7:82   */\n      swap1\n      jump\t// out\n        /* \"#utility.yul\":88:205   */\n    tag_103:\n        /* \"#utility.yul\":197:198   */\n      0x00\n        /* \"#utility.yul\":194:195   */\n      dup1\n        /* \"#utility.yul\":187:199   */\n      revert\n        /* \"#utility.yul\":211:328   */\n    tag_104:\n        /* \"#utility.yul\":320:321   */\n      0x00\n        /* \"#utility.yul\":317:318   */\n      dup1\n        /* \"#utility.yul\":310:322   */\n      revert\n        /* \"#utility.yul\":334:460   */\n    tag_105:\n        /* \"#utility.yul\":371:378   */\n      0x00\n        /* \"#utility.yul\":411:453   */\n      0xffffffffffffffffffffffffffffffffffffffff\n        /* \"#utility.yul\":404:409   */\n      dup3\n        /* \"#utility.yul\":400:454   */\n      and\n        /* \"#utility.yul\":389:454   */\n      swap1\n      pop\n        /* \"#utility.yul\":334:460   */\n      swap2\n      swap1\n      pop\n      jump\t// out\n        /* \"#utility.yul\":466:562   */\n    tag_106:\n        /* \"#utility.yul\":503:510   */\n      0x00\n        /* \"#utility.yul\":532:556   */\n      tag_157\n        /* \"#utility.yul\":550:555   */\n      dup3\n        /* \"#utility.yul\":532:556   */\n      tag_105\n      jump\t// in\n    tag_157:\n        /* \"#utility.yul\":521:556   */\n      swap1\n      pop\n        /* \"#utility.yul\":466:562   */\n      swap2\n      swap1\n      pop\n      jump\t// out\n        /* \"#utility.yul\":568:690   */\n    tag_107:\n        /* \"#utility.yul\":641:665   */\n      tag_159\n        /* \"#utility.yul\":659:664   */\n      dup2\n        /* \"#utility.yul\":641:665   */\n      tag_106\n      jump\t// in\n    tag_159:\n        /* \"#utility.yul\":634:639   */\n      dup2\n        /* \"#utility.yul\":631:666   */\n      eq\n        /* \"#utility.yul\":621:684   */\n      tag_160\n      jumpi\n        /* \"#utility.yul\":680:681   */\n      0x00\n        /* \"#utility.yul\":677:678   */\n      dup1\n        /* \"#utility.yul\":670:682   */\n      revert\n        /* \"#utility.yul\":621:684   */\n    tag_160:\n        /* \"#utility.yul\":568:690   */\n      pop\n      jump\t// out\n        /* \"#utility.yul\":696:835   */\n    tag_108:\n        /* \"#utility.yul\":742:747   */\n      0x00\n        /* \"#utility.yul\":780:786   */\n      dup2\n        /* \"#utility.yul\":767:787   */\n      calldataload\n        /* \"#utility.yul\":758:787   */\n      swap1\n      pop\n        /* \"#utility.yul\":796:829   */\n      tag_162\n        /* \"#utility.yul\":823:828   */\n      dup2\n        /* \"#utility.yul\":796:829   */\n      tag_107\n      jump\t// in\n    tag_162:\n        /* \"#utility.yul\":696:835   */\n      swap3\n      swap2\n      pop\n      pop\n      jump\t// out\n        /* \"#utility.yul\":841:1170   */\n    tag_18:\n        /* \"#utility.yul\":900:906   */\n      0x00\n        /* \"#utility.yul\":949:951   */\n      0x20\n        /* \"#utility.yul\":937:946   */\n      dup3\n        /* \"#utility.yul\":928:935   */\n      dup5\n        /* \"#utility.yul\":924:947   */\n      sub\n        /* \"#utility.yul\":920:952   */\n      slt\n        /* \"#utility.yul\":917:1036   */\n      iszero\n      tag_164\n      jumpi\n        /* \"#utility.yul\":955:1034   */\n      tag_165\n      tag_103\n      jump\t// in\n    tag_165:\n        /* \"#utility.yul\":917:1036   */\n    tag_164:\n        /* \"#utility.yul\":1075:1076   */\n      0x00\n        /* \"#utility.yul\":1100:1153   */\n      tag_166\n        /* \"#utility.yul\":1145:1152   */\n      dup5\n        /* \"#utility.yul\":1136:1142   */\n      dup3\n        /* \"#utility.yul\":1125:1134   */\n      dup6\n        /* \"#utility.yul\":1121:1143   */\n      add\n        /* \"#utility.yul\":1100:1153   */\n      tag_108\n      jump\t// in\n    tag_166:\n        /* \"#utility.yul\":1090:1153   */\n      swap2\n      pop\n        /* \"#utility.yul\":1046:1163   */\n      pop\n        /* \"#utility.yul\":841:1170   */\n      swap3\n      swap2\n      pop\n      pop\n      jump\t// out\n        /* \"#utility.yul\":1176:1266   */\n    tag_109:\n        /* \"#utility.yul\":1210:1217   */\n      0x00\n        /* \"#utility.yul\":1253:1258   */\n      dup2\n        /* \"#utility.yul\":1246:1259   */\n      iszero\n        /* \"#utility.yul\":1239:1260   */\n      iszero\n        /* \"#utility.yul\":1228:1260   */\n      swap1\n      pop\n        /* \"#utility.yul\":1176:1266   */\n      swap2\n      swap1\n      pop\n      jump\t// out\n        /* \"#utility.yul\":1272:1381   */\n    tag_110:\n        /* \"#utility.yul\":1353:1374   */\n      tag_169\n        /* \"#utility.yul\":1368:1373   */\n      dup2\n        /* \"#utility.yul\":1353:1374   */\n      tag_109\n      jump\t// in\n    tag_169:\n        /* \"#utility.yul\":1348:1351   */\n      dup3\n        /* \"#utility.yul\":1341:1375   */\n      mstore\n        /* \"#utility.yul\":1272:1381   */\n      pop\n      pop\n      jump\t// out\n        /* \"#utility.yul\":1387:1597   */\n    tag_21:\n        /* \"#utility.yul\":1474:1478   */\n      0x00\n        /* \"#utility.yul\":1512:1514   */\n      0x20\n        /* \"#utility.yul\":1501:1510   */\n      dup3\n        /* \"#utility.yul\":1497:1515   */\n      add\n        /* \"#utility.yul\":1489:1515   */\n      swap1\n      pop\n        /* \"#utility.yul\":1525:1590   */\n      tag_171\n        /* \"#utility.yul\":1587:1588   */\n      0x00\n        /* \"#utility.yul\":1576:1585   */\n      dup4\n        /* \"#utility.yul\":1572:1589   */\n      add\n        /* \"#utility.yul\":1563:1569   */\n      dup5\n        /* \"#utility.yul\":1525:1590   */\n      tag_110\n      jump\t// in\n    tag_171:\n        /* \"#utility.yul\":1387:1597   */\n      swap3\n      swap2\n      pop\n      pop\n      jump\t// out\n        /* \"#utility.yul\":1603:1719   */\n    tag_111:\n        /* \"#utility.yul\":1673:1694   */\n      tag_173\n        /* \"#utility.yul\":1688:1693   */\n      dup2\n        /* \"#utility.yul\":1673:1694   */\n      tag_109\n      jump\t// in\n    tag_173:\n        /* \"#utility.yul\":1666:1671   */\n      dup2\n        /* \"#utility.yul\":1663:1695   */\n      eq\n        /* \"#utility.yul\":1653:1713   */\n      tag_174\n      jumpi\n        /* \"#utility.yul\":1709:1710   */\n      0x00\n        /* \"#utility.yul\":1706:1707   */\n      dup1\n        /* \"#utility.yul\":1699:1711   */\n      revert\n        /* \"#utility.yul\":1653:1713   */\n    tag_174:\n        /* \"#utility.yul\":1603:1719   */\n      pop\n      jump\t// out\n        /* \"#utility.yul\":1725:1858   */\n    tag_112:\n        /* \"#utility.yul\":1768:1773   */\n      0x00\n        /* \"#utility.yul\":1806:1812   */\n      dup2\n        /* \"#utility.yul\":1793:1813   */\n      calldataload\n        /* \"#utility.yul\":1784:1813   */\n      swap1\n      pop\n        /* \"#utility.yul\":1822:1852   */\n      tag_176\n        /* \"#utility.yul\":1846:1851   */\n      dup2\n        /* \"#utility.yul\":1822:1852   */\n      tag_111\n      jump\t// in\n    tag_176:\n        /* \"#utility.yul\":1725:1858   */\n      swap3\n      swap2\n      pop\n      pop\n      jump\t// out\n        /* \"#utility.yul\":1864:2332   */\n    tag_30:\n        /* \"#utility.yul\":1929:1935   */\n      0x00\n        /* \"#utility.yul\":1937:1943   */\n      dup1\n        /* \"#utility.yul\":1986:1988   */\n      0x40\n        /* \"#utility.yul\":1974:1983   */\n      dup4\n        /* \"#utility.yul\":1965:1972   */\n      dup6\n        /* \"#utility.yul\":1961:1984   */\n      sub\n        /* \"#utility.yul\":1957:1989   */\n      slt\n        /* \"#utility.yul\":1954:2073   */\n      iszero\n      tag_178\n      jumpi\n        /* \"#utility.yul\":1992:2071   */\n      tag_179\n      tag_103\n      jump\t// in\n    tag_179:\n        /* \"#utility.yul\":1954:2073   */\n    tag_178:\n        /* \"#utility.yul\":2112:2113   */\n      0x00\n        /* \"#utility.yul\":2137:2190   */\n      tag_180\n        /* \"#utility.yul\":2182:2189   */\n      dup6\n        /* \"#utility.yul\":2173:2179   */\n      dup3\n        /* \"#utility.yul\":2162:2171   */\n      dup7\n        /* \"#utility.yul\":2158:2180   */\n      add\n        /* \"#utility.yul\":2137:2190   */\n      tag_108\n      jump\t// in\n    tag_180:\n        /* \"#utility.yul\":2127:2190   */\n      swap3\n      pop\n        /* \"#utility.yul\":2083:2200   */\n      pop\n        /* \"#utility.yul\":2239:2241   */\n      0x20\n        /* \"#utility.yul\":2265:2315   */\n      tag_181\n        /* \"#utility.yul\":2307:2314   */\n      dup6\n        /* \"#utility.yul\":2298:2304   */\n      dup3\n        /* \"#utility.yul\":2287:2296   */\n      dup7\n        /* \"#utility.yul\":2283:2305   */\n      add\n        /* \"#utility.yul\":2265:2315   */\n      tag_112\n      jump\t// in\n    tag_181:\n        /* \"#utility.yul\":2255:2315   */\n      swap2\n      pop\n        /* \"#utility.yul\":2210:2325   */\n      pop\n        /* \"#utility.yul\":1864:2332   */\n      swap3\n      pop\n      swap3\n      swap1\n      pop\n      jump\t// out\n        /* \"#utility.yul\":2338:2415   */\n    tag_113:\n        /* \"#utility.yul\":2375:2382   */\n      0x00\n        /* \"#utility.yul\":2404:2409   */\n      dup2\n        /* \"#utility.yul\":2393:2409   */\n      swap1\n      pop\n        /* \"#utility.yul\":2338:2415   */\n      swap2\n      swap1\n      pop\n      jump\t// out\n        /* \"#utility.yul\":2421:2543   */\n    tag_114:\n        /* \"#utility.yul\":2494:2518   */\n      tag_184\n        /* \"#utility.yul\":2512:2517   */\n      dup2\n        /* \"#utility.yul\":2494:2518   */\n      tag_113\n      jump\t// in\n    tag_184:\n        /* \"#utility.yul\":2487:2492   */\n      dup2\n        /* \"#utility.yul\":2484:2519   */\n      eq\n        /* \"#utility.yul\":2474:2537   */\n      tag_185\n      jumpi\n        /* \"#utility.yul\":2533:2534   */\n      0x00\n        /* \"#utility.yul\":2530:2531   */\n      dup1\n        /* \"#utility.yul\":2523:2535   */\n      revert\n        /* \"#utility.yul\":2474:2537   */\n    tag_185:\n        /* \"#utility.yul\":2421:2543   */\n      pop\n      jump\t// out\n        /* \"#utility.yul\":2549:2688   */\n    tag_115:\n        /* \"#utility.yul\":2595:2600   */\n      0x00\n        /* \"#utility.yul\":2633:2639   */\n      dup2\n        /* \"#utility.yul\":2620:2640   */\n      calldataload\n        /* \"#utility.yul\":2611:2640   */\n      swap1\n      pop\n        /* \"#utility.yul\":2649:2682   */\n      tag_187\n        /* \"#utility.yul\":2676:2681   */\n      dup2\n        /* \"#utility.yul\":2649:2682   */\n      tag_114\n      jump\t// in\n    tag_187:\n        /* \"#utility.yul\":2549:2688   */\n      swap3\n      swap2\n      pop\n      pop\n      jump\t// out\n        /* \"#utility.yul\":2694:3168   */\n    tag_35:\n        /* \"#utility.yul\":2762:2768   */\n      0x00\n        /* \"#utility.yul\":2770:2776   */\n      dup1\n        /* \"#utility.yul\":2819:2821   */\n      0x40\n        /* \"#utility.yul\":2807:2816   */\n      dup4\n        /* \"#utility.yul\":2798:2805   */\n      dup6\n        /* \"#utility.yul\":2794:2817   */\n      sub\n        /* \"#utility.yul\":2790:2822   */\n      slt\n        /* \"#utility.yul\":2787:2906   */\n      iszero\n      tag_189\n      jumpi\n        /* \"#utility.yul\":2825:2904   */\n      tag_190\n      tag_103\n      jump\t// in\n    tag_190:\n        /* \"#utility.yul\":2787:2906   */\n    tag_189:\n        /* \"#utility.yul\":2945:2946   */\n      0x00\n        /* \"#utility.yul\":2970:3023   */\n      tag_191\n        /* \"#utility.yul\":3015:3022   */\n      dup6\n        /* \"#utility.yul\":3006:3012   */\n      dup3\n        /* \"#utility.yul\":2995:3004   */\n      dup7\n        /* \"#utility.yul\":2991:3013   */\n      add\n        /* \"#utility.yul\":2970:3023   */\n      tag_108\n      jump\t// in\n    tag_191:\n        /* \"#utility.yul\":2960:3023   */\n      swap3\n      pop\n        /* \"#utility.yul\":2916:3033   */\n      pop\n        /* \"#utility.yul\":3072:3074   */\n      0x20\n        /* \"#utility.yul\":3098:3151   */\n      tag_192\n        /* \"#utility.yul\":3143:3150   */\n      dup6\n        /* \"#utility.yul\":3134:3140   */\n      dup3\n        /* \"#utility.yul\":3123:3132   */\n      dup7\n        /* \"#utility.yul\":3119:3141   */\n      add\n        /* \"#utility.yul\":3098:3151   */\n      tag_115\n      jump\t// in\n    tag_192:\n        /* \"#utility.yul\":3088:3151   */\n      swap2\n      pop\n        /* \"#utility.yul\":3043:3161   */\n      pop\n        /* \"#utility.yul\":2694:3168   */\n      swap3\n      pop\n      swap3\n      swap1\n      pop\n      jump\t// out\n        /* \"#utility.yul\":3174:3292   */\n    tag_116:\n        /* \"#utility.yul\":3261:3285   */\n      tag_194\n        /* \"#utility.yul\":3279:3284   */\n      dup2\n        /* \"#utility.yul\":3261:3285   */\n      tag_113\n      jump\t// in\n    tag_194:\n        /* \"#utility.yul\":3256:3259   */\n      dup3\n        /* \"#utility.yul\":3249:3286   */\n      mstore\n        /* \"#utility.yul\":3174:3292   */\n      pop\n      pop\n      jump\t// out\n        /* \"#utility.yul\":3298:3520   */\n    tag_42:\n        /* \"#utility.yul\":3391:3395   */\n      0x00\n        /* \"#utility.yul\":3429:3431   */\n      0x20\n        /* \"#utility.yul\":3418:3427   */\n      dup3\n        /* \"#utility.yul\":3414:3432   */\n      add\n        /* \"#utility.yul\":3406:3432   */\n      swap1\n      pop\n        /* \"#utility.yul\":3442:3513   */\n      tag_196\n        /* \"#utility.yul\":3510:3511   */\n      0x00\n        /* \"#utility.yul\":3499:3508   */\n      dup4\n        /* \"#utility.yul\":3495:3512   */\n      add\n        /* \"#utility.yul\":3486:3492   */\n      dup5\n        /* \"#utility.yul\":3442:3513   */\n      tag_116\n      jump\t// in\n    tag_196:\n        /* \"#utility.yul\":3298:3520   */\n      swap3\n      swap2\n      pop\n      pop\n      jump\t// out\n        /* \"#utility.yul\":3526:3630   */\n    tag_117:\n        /* \"#utility.yul\":3571:3578   */\n      0x00\n        /* \"#utility.yul\":3600:3624   */\n      tag_198\n        /* \"#utility.yul\":3618:3623   */\n      dup3\n        /* \"#utility.yul\":3600:3624   */\n      tag_105\n      jump\t// in\n    tag_198:\n        /* \"#utility.yul\":3589:3624   */\n      swap1\n      pop\n        /* \"#utility.yul\":3526:3630   */\n      swap2\n      swap1\n      pop\n      jump\t// out\n        /* \"#utility.yul\":3636:3778   */\n    tag_118:\n        /* \"#utility.yul\":3739:3771   */\n      tag_200\n        /* \"#utility.yul\":3765:3770   */\n      dup2\n        /* \"#utility.yul\":3739:3771   */\n      tag_117\n      jump\t// in\n    tag_200:\n        /* \"#utility.yul\":3734:3737   */\n      dup3\n        /* \"#utility.yul\":3727:3772   */\n      mstore\n        /* \"#utility.yul\":3636:3778   */\n      pop\n      pop\n      jump\t// out\n        /* \"#utility.yul\":3784:4038   */\n    tag_51:\n        /* \"#utility.yul\":3893:3897   */\n      0x00\n        /* \"#utility.yul\":3931:3933   */\n      0x20\n        /* \"#utility.yul\":3920:3929   */\n      dup3\n        /* \"#utility.yul\":3916:3934   */\n      add\n        /* \"#utility.yul\":3908:3934   */\n      swap1\n      pop\n        /* \"#utility.yul\":3944:4031   */\n      tag_202\n        /* \"#utility.yul\":4028:4029   */\n      0x00\n        /* \"#utility.yul\":4017:4026   */\n      dup4\n        /* \"#utility.yul\":4013:4030   */\n      add\n        /* \"#utility.yul\":4004:4010   */\n      dup5\n        /* \"#utility.yul\":3944:4031   */\n      tag_118\n      jump\t// in\n    tag_202:\n        /* \"#utility.yul\":3784:4038   */\n      swap3\n      swap2\n      pop\n      pop\n      jump\t// out\n        /* \"#utility.yul\":4044:4182   */\n    tag_119:\n        /* \"#utility.yul\":4125:4157   */\n      tag_204\n        /* \"#utility.yul\":4151:4156   */\n      dup2\n        /* \"#utility.yul\":4125:4157   */\n      tag_117\n      jump\t// in\n    tag_204:\n        /* \"#utility.yul\":4118:4123   */\n      dup2\n        /* \"#utility.yul\":4115:4158   */\n      eq\n        /* \"#utility.yul\":4105:4176   */\n      tag_205\n      jumpi\n        /* \"#utility.yul\":4172:4173   */\n      0x00\n        /* \"#utility.yul\":4169:4170   */\n      dup1\n        /* \"#utility.yul\":4162:4174   */\n      revert\n        /* \"#utility.yul\":4105:4176   */\n    tag_205:\n        /* \"#utility.yul\":4044:4182   */\n      pop\n      jump\t// out\n        /* \"#utility.yul\":4188:4343   */\n    tag_120:\n        /* \"#utility.yul\":4242:4247   */\n      0x00\n        /* \"#utility.yul\":4280:4286   */\n      dup2\n        /* \"#utility.yul\":4267:4287   */\n      calldataload\n        /* \"#utility.yul\":4258:4287   */\n      swap1\n      pop\n        /* \"#utility.yul\":4296:4337   */\n      tag_207\n        /* \"#utility.yul\":4331:4336   */\n      dup2\n        /* \"#utility.yul\":4296:4337   */\n      tag_119\n      jump\t// in\n    tag_207:\n        /* \"#utility.yul\":4188:4343   */\n      swap3\n      swap2\n      pop\n      pop\n      jump\t// out\n        /* \"#utility.yul\":4349:4694   */\n    tag_55:\n        /* \"#utility.yul\":4416:4422   */\n      0x00\n        /* \"#utility.yul\":4465:4467   */\n      0x20\n        /* \"#utility.yul\":4453:4462   */\n      dup3\n        /* \"#utility.yul\":4444:4451   */\n      dup5\n        /* \"#utility.yul\":4440:4463   */\n      sub\n        /* \"#utility.yul\":4436:4468   */\n      slt\n        /* \"#utility.yul\":4433:4552   */\n      iszero\n      tag_209\n      jumpi\n        /* \"#utility.yul\":4471:4550   */\n      tag_210\n      tag_103\n      jump\t// in\n    tag_210:\n        /* \"#utility.yul\":4433:4552   */\n    tag_209:\n        /* \"#utility.yul\":4591:4592   */\n      0x00\n        /* \"#utility.yul\":4616:4677   */\n      tag_211\n        /* \"#utility.yul\":4669:4676   */\n      dup5\n        /* \"#utility.yul\":4660:4666   */\n      dup3\n        /* \"#utility.yul\":4649:4658   */\n      dup6\n        /* \"#utility.yul\":4645:4667   */\n      add\n        /* \"#utility.yul\":4616:4677   */\n      tag_120\n      jump\t// in\n    tag_211:\n        /* \"#utility.yul\":4606:4677   */\n      swap2\n      pop\n        /* \"#utility.yul\":4562:4687   */\n      pop\n        /* \"#utility.yul\":4349:4694   */\n      swap3\n      swap2\n      pop\n      pop\n      jump\t// out\n        /* \"#utility.yul\":4700:4817   */\n    tag_121:\n        /* \"#utility.yul\":4809:4810   */\n      0x00\n        /* \"#utility.yul\":4806:4807   */\n      dup1\n        /* \"#utility.yul\":4799:4811   */\n      revert\n        /* \"#utility.yul\":4823:4940   */\n    tag_122:\n        /* \"#utility.yul\":4932:4933   */\n      0x00\n        /* \"#utility.yul\":4929:4930   */\n      dup1\n        /* \"#utility.yul\":4922:4934   */\n      revert\n        /* \"#utility.yul\":4946:5048   */\n    tag_123:\n        /* \"#utility.yul\":4987:4993   */\n      0x00\n        /* \"#utility.yul\":5038:5040   */\n      0x1f\n        /* \"#utility.yul\":5034:5041   */\n      not\n        /* \"#utility.yul\":5029:5031   */\n      0x1f\n        /* \"#utility.yul\":5022:5027   */\n      dup4\n        /* \"#utility.yul\":5018:5032   */\n      add\n        /* \"#utility.yul\":5014:5042   */\n      and\n        /* \"#utility.yul\":5004:5042   */\n      swap1\n      pop\n        /* \"#utility.yul\":4946:5048   */\n      swap2\n      swap1\n      pop\n      jump\t// out\n        /* \"#utility.yul\":5054:5234   */\n    tag_124:\n        /* \"#utility.yul\":5102:5179   */\n      0x4e487b7100000000000000000000000000000000000000000000000000000000\n        /* \"#utility.yul\":5099:5100   */\n      0x00\n        /* \"#utility.yul\":5092:5180   */\n      mstore\n        /* \"#utility.yul\":5199:5203   */\n      0x41\n        /* \"#utility.yul\":5196:5197   */\n      0x04\n        /* \"#utility.yul\":5189:5204   */\n      mstore\n        /* \"#utility.yul\":5223:5227   */\n      0x24\n        /* \"#utility.yul\":5220:5221   */\n      0x00\n        /* \"#utility.yul\":5213:5228   */\n      revert\n        /* \"#utility.yul\":5240:5521   */\n    tag_125:\n        /* \"#utility.yul\":5323:5350   */\n      tag_217\n        /* \"#utility.yul\":5345:5349   */\n      dup3\n        /* \"#utility.yul\":5323:5350   */\n      tag_123\n      jump\t// in\n    tag_217:\n        /* \"#utility.yul\":5315:5321   */\n      dup2\n        /* \"#utility.yul\":5311:5351   */\n      add\n        /* \"#utility.yul\":5453:5459   */\n      dup2\n        /* \"#utility.yul\":5441:5451   */\n      dup2\n        /* \"#utility.yul\":5438:5460   */\n      lt\n        /* \"#utility.yul\":5417:5435   */\n      0xffffffffffffffff\n        /* \"#utility.yul\":5405:5415   */\n      dup3\n        /* \"#utility.yul\":5402:5436   */\n      gt\n        /* \"#utility.yul\":5399:5461   */\n      or\n        /* \"#utility.yul\":5396:5484   */\n      iszero\n      tag_218\n      jumpi\n        /* \"#utility.yul\":5464:5482   */\n      tag_219\n      tag_124\n      jump\t// in\n    tag_219:\n        /* \"#utility.yul\":5396:5484   */\n    tag_218:\n        /* \"#utility.yul\":5504:5514   */\n      dup1\n        /* \"#utility.yul\":5500:5502   */\n      0x40\n        /* \"#utility.yul\":5493:5515   */\n      mstore\n        /* \"#utility.yul\":5283:5521   */\n      pop\n        /* \"#utility.yul\":5240:5521   */\n      pop\n      pop\n      jump\t// out\n        /* \"#utility.yul\":5527:5656   */\n    tag_126:\n        /* \"#utility.yul\":5561:5567   */\n      0x00\n        /* \"#utility.yul\":5588:5608   */\n      tag_221\n      tag_102\n      jump\t// in\n    tag_221:\n        /* \"#utility.yul\":5578:5608   */\n      swap1\n      pop\n        /* \"#utility.yul\":5617:5650   */\n      tag_222\n        /* \"#utility.yul\":5645:5649   */\n      dup3\n        /* \"#utility.yul\":5637:5643   */\n      dup3\n        /* \"#utility.yul\":5617:5650   */\n      tag_125\n      jump\t// in\n    tag_222:\n        /* \"#utility.yul\":5527:5656   */\n      swap2\n      swap1\n      pop\n      jump\t// out\n        /* \"#utility.yul\":5662:5969   */\n    tag_127:\n        /* \"#utility.yul\":5723:5727   */\n      0x00\n        /* \"#utility.yul\":5813:5831   */\n      0xffffffffffffffff\n        /* \"#utility.yul\":5805:5811   */\n      dup3\n        /* \"#utility.yul\":5802:5832   */\n      gt\n        /* \"#utility.yul\":5799:5855   */\n      iszero\n      tag_224\n      jumpi\n        /* \"#utility.yul\":5835:5853   */\n      tag_225\n      tag_124\n      jump\t// in\n    tag_225:\n        /* \"#utility.yul\":5799:5855   */\n    tag_224:\n        /* \"#utility.yul\":5873:5902   */\n      tag_226\n        /* \"#utility.yul\":5895:5901   */\n      dup3\n        /* \"#utility.yul\":5873:5902   */\n      tag_123\n      jump\t// in\n    tag_226:\n        /* \"#utility.yul\":5865:5902   */\n      swap1\n      pop\n        /* \"#utility.yul\":5957:5961   */\n      0x20\n        /* \"#utility.yul\":5951:5955   */\n      dup2\n        /* \"#utility.yul\":5947:5962   */\n      add\n        /* \"#utility.yul\":5939:5962   */\n      swap1\n      pop\n        /* \"#utility.yul\":5662:5969   */\n      swap2\n      swap1\n      pop\n      jump\t// out\n        /* \"#utility.yul\":5975:6129   */\n    tag_128:\n        /* \"#utility.yul\":6059:6065   */\n      dup3\n        /* \"#utility.yul\":6054:6057   */\n      dup2\n        /* \"#utility.yul\":6049:6052   */\n      dup4\n        /* \"#utility.yul\":6036:6066   */\n      calldatacopy\n        /* \"#utility.yul\":6121:6122   */\n      0x00\n        /* \"#utility.yul\":6112:6118   */\n      dup4\n        /* \"#utility.yul\":6107:6110   */\n      dup4\n        /* \"#utility.yul\":6103:6119   */\n      add\n        /* \"#utility.yul\":6096:6123   */\n      mstore\n        /* \"#utility.yul\":5975:6129   */\n      pop\n      pop\n      pop\n      jump\t// out\n        /* \"#utility.yul\":6135:6545   */\n    tag_129:\n        /* \"#utility.yul\":6212:6217   */\n      0x00\n        /* \"#utility.yul\":6237:6302   */\n      tag_229\n        /* \"#utility.yul\":6253:6301   */\n      tag_230\n        /* \"#utility.yul\":6294:6300   */\n      dup5\n        /* \"#utility.yul\":6253:6301   */\n      tag_127\n      jump\t// in\n    tag_230:\n        /* \"#utility.yul\":6237:6302   */\n      tag_126\n      jump\t// in\n    tag_229:\n        /* \"#utility.yul\":6228:6302   */\n      swap1\n      pop\n        /* \"#utility.yul\":6325:6331   */\n      dup3\n        /* \"#utility.yul\":6318:6323   */\n      dup2\n        /* \"#utility.yul\":6311:6332   */\n      mstore\n        /* \"#utility.yul\":6363:6367   */\n      0x20\n        /* \"#utility.yul\":6356:6361   */\n      dup2\n        /* \"#utility.yul\":6352:6368   */\n      add\n        /* \"#utility.yul\":6401:6404   */\n      dup5\n        /* \"#utility.yul\":6392:6398   */\n      dup5\n        /* \"#utility.yul\":6387:6390   */\n      dup5\n        /* \"#utility.yul\":6383:6399   */\n      add\n        /* \"#utility.yul\":6380:6405   */\n      gt\n        /* \"#utility.yul\":6377:6489   */\n      iszero\n      tag_231\n      jumpi\n        /* \"#utility.yul\":6408:6487   */\n      tag_232\n      tag_122\n      jump\t// in\n    tag_232:\n        /* \"#utility.yul\":6377:6489   */\n    tag_231:\n        /* \"#utility.yul\":6498:6539   */\n      tag_233\n        /* \"#utility.yul\":6532:6538   */\n      dup5\n        /* \"#utility.yul\":6527:6530   */\n      dup3\n        /* \"#utility.yul\":6522:6525   */\n      dup6\n        /* \"#utility.yul\":6498:6539   */\n      tag_128\n      jump\t// in\n    tag_233:\n        /* \"#utility.yul\":6218:6545   */\n      pop\n        /* \"#utility.yul\":6135:6545   */\n      swap4\n      swap3\n      pop\n      pop\n      pop\n      jump\t// out\n        /* \"#utility.yul\":6564:6902   */\n    tag_130:\n        /* \"#utility.yul\":6619:6624   */\n      0x00\n        /* \"#utility.yul\":6668:6671   */\n      dup3\n        /* \"#utility.yul\":6661:6665   */\n      0x1f\n        /* \"#utility.yul\":6653:6659   */\n      dup4\n        /* \"#utility.yul\":6649:6666   */\n      add\n        /* \"#utility.yul\":6645:6672   */\n      slt\n        /* \"#utility.yul\":6635:6757   */\n      tag_235\n      jumpi\n        /* \"#utility.yul\":6676:6755   */\n      tag_236\n      tag_121\n      jump\t// in\n    tag_236:\n        /* \"#utility.yul\":6635:6757   */\n    tag_235:\n        /* \"#utility.yul\":6793:6799   */\n      dup2\n        /* \"#utility.yul\":6780:6800   */\n      calldataload\n        /* \"#utility.yul\":6818:6896   */\n      tag_237\n        /* \"#utility.yul\":6892:6895   */\n      dup5\n        /* \"#utility.yul\":6884:6890   */\n      dup3\n        /* \"#utility.yul\":6877:6881   */\n      0x20\n        /* \"#utility.yul\":6869:6875   */\n      dup7\n        /* \"#utility.yul\":6865:6882   */\n      add\n        /* \"#utility.yul\":6818:6896   */\n      tag_129\n      jump\t// in\n    tag_237:\n        /* \"#utility.yul\":6809:6896   */\n      swap2\n      pop\n        /* \"#utility.yul\":6625:6902   */\n      pop\n        /* \"#utility.yul\":6564:6902   */\n      swap3\n      swap2\n      pop\n      pop\n      jump\t// out\n        /* \"#utility.yul\":6908:7721   */\n    tag_60:\n        /* \"#utility.yul\":7002:7008   */\n      0x00\n        /* \"#utility.yul\":7010:7016   */\n      dup1\n        /* \"#utility.yul\":7018:7024   */\n      0x00\n        /* \"#utility.yul\":7067:7069   */\n      0x60\n        /* \"#utility.yul\":7055:7064   */\n      dup5\n        /* \"#utility.yul\":7046:7053   */\n      dup7\n        /* \"#utility.yul\":7042:7065   */\n      sub\n        /* \"#utility.yul\":7038:7070   */\n      slt\n        /* \"#utility.yul\":7035:7154   */\n      iszero\n      tag_239\n      jumpi\n        /* \"#utility.yul\":7073:7152   */\n      tag_240\n      tag_103\n      jump\t// in\n    tag_240:\n        /* \"#utility.yul\":7035:7154   */\n    tag_239:\n        /* \"#utility.yul\":7193:7194   */\n      0x00\n        /* \"#utility.yul\":7218:7279   */\n      tag_241\n        /* \"#utility.yul\":7271:7278   */\n      dup7\n        /* \"#utility.yul\":7262:7268   */\n      dup3\n        /* \"#utility.yul\":7251:7260   */\n      dup8\n        /* \"#utility.yul\":7247:7269   */\n      add\n        /* \"#utility.yul\":7218:7279   */\n      tag_120\n      jump\t// in\n    tag_241:\n        /* \"#utility.yul\":7208:7279   */\n      swap4\n      pop\n        /* \"#utility.yul\":7164:7289   */\n      pop\n        /* \"#utility.yul\":7328:7330   */\n      0x20\n        /* \"#utility.yul\":7354:7407   */\n      tag_242\n        /* \"#utility.yul\":7399:7406   */\n      dup7\n        /* \"#utility.yul\":7390:7396   */\n      dup3\n        /* \"#utility.yul\":7379:7388   */\n      dup8\n        /* \"#utility.yul\":7375:7397   */\n      add\n        /* \"#utility.yul\":7354:7407   */\n      tag_115\n      jump\t// in\n    tag_242:\n        /* \"#utility.yul\":7344:7407   */\n      swap3\n      pop\n        /* \"#utility.yul\":7299:7417   */\n      pop\n        /* \"#utility.yul\":7484:7486   */\n      0x40\n        /* \"#utility.yul\":7473:7482   */\n      dup5\n        /* \"#utility.yul\":7469:7487   */\n      add\n        /* \"#utility.yul\":7456:7488   */\n      calldataload\n        /* \"#utility.yul\":7515:7533   */\n      0xffffffffffffffff\n        /* \"#utility.yul\":7507:7513   */\n      dup2\n        /* \"#utility.yul\":7504:7534   */\n      gt\n        /* \"#utility.yul\":7501:7618   */\n      iszero\n      tag_243\n      jumpi\n        /* \"#utility.yul\":7537:7616   */\n      tag_244\n      tag_104\n      jump\t// in\n    tag_244:\n        /* \"#utility.yul\":7501:7618   */\n    tag_243:\n        /* \"#utility.yul\":7642:7704   */\n      tag_245\n        /* \"#utility.yul\":7696:7703   */\n      dup7\n        /* \"#utility.yul\":7687:7693   */\n      dup3\n        /* \"#utility.yul\":7676:7685   */\n      dup8\n        /* \"#utility.yul\":7672:7694   */\n      add\n        /* \"#utility.yul\":7642:7704   */\n      tag_130\n      jump\t// in\n    tag_245:\n        /* \"#utility.yul\":7632:7704   */\n      swap2\n      pop\n        /* \"#utility.yul\":7427:7714   */\n      pop\n        /* \"#utility.yul\":6908:7721   */\n      swap3\n      pop\n      swap3\n      pop\n      swap3\n      jump\t// out\n        /* \"#utility.yul\":7727:7825   */\n    tag_131:\n        /* \"#utility.yul\":7778:7784   */\n      0x00\n        /* \"#utility.yul\":7812:7817   */\n      dup2\n        /* \"#utility.yul\":7806:7818   */\n      mload\n        /* \"#utility.yul\":7796:7818   */\n      swap1\n      pop\n        /* \"#utility.yul\":7727:7825   */\n      swap2\n      swap1\n      pop\n      jump\t// out\n        /* \"#utility.yul\":7831:7999   */\n    tag_132:\n        /* \"#utility.yul\":7914:7925   */\n      0x00\n        /* \"#utility.yul\":7948:7954   */\n      dup3\n        /* \"#utility.yul\":7943:7946   */\n      dup3\n        /* \"#utility.yul\":7936:7955   */\n      mstore\n        /* \"#utility.yul\":7988:7992   */\n      0x20\n        /* \"#utility.yul\":7983:7986   */\n      dup3\n        /* \"#utility.yul\":7979:7993   */\n      add\n        /* \"#utility.yul\":7964:7993   */\n      swap1\n      pop\n        /* \"#utility.yul\":7831:7999   */\n      swap3\n      swap2\n      pop\n      pop\n      jump\t// out\n        /* \"#utility.yul\":8005:8312   */\n    tag_133:\n        /* \"#utility.yul\":8073:8074   */\n      0x00\n        /* \"#utility.yul\":8083:8196   */\n    tag_249:\n        /* \"#utility.yul\":8097:8103   */\n      dup4\n        /* \"#utility.yul\":8094:8095   */\n      dup2\n        /* \"#utility.yul\":8091:8104   */\n      lt\n        /* \"#utility.yul\":8083:8196   */\n      iszero\n      tag_251\n      jumpi\n        /* \"#utility.yul\":8182:8183   */\n      dup1\n        /* \"#utility.yul\":8177:8180   */\n      dup3\n        /* \"#utility.yul\":8173:8184   */\n      add\n        /* \"#utility.yul\":8167:8185   */\n      mload\n        /* \"#utility.yul\":8163:8164   */\n      dup2\n        /* \"#utility.yul\":8158:8161   */\n      dup5\n        /* \"#utility.yul\":8154:8165   */\n      add\n        /* \"#utility.yul\":8147:8186   */\n      mstore\n        /* \"#utility.yul\":8119:8121   */\n      0x20\n        /* \"#utility.yul\":8116:8117   */\n      dup2\n        /* \"#utility.yul\":8112:8122   */\n      add\n        /* \"#utility.yul\":8107:8122   */\n      swap1\n      pop\n        /* \"#utility.yul\":8083:8196   */\n      jump(tag_249)\n    tag_251:\n        /* \"#utility.yul\":8214:8220   */\n      dup4\n        /* \"#utility.yul\":8211:8212   */\n      dup2\n        /* \"#utility.yul\":8208:8221   */\n      gt\n        /* \"#utility.yul\":8205:8306   */\n      iszero\n      tag_252\n      jumpi\n        /* \"#utility.yul\":8294:8295   */\n      0x00\n        /* \"#utility.yul\":8285:8291   */\n      dup5\n        /* \"#utility.yul\":8280:8283   */\n      dup5\n        /* \"#utility.yul\":8276:8292   */\n      add\n        /* \"#utility.yul\":8269:8296   */\n      mstore\n        /* \"#utility.yul\":8205:8306   */\n    tag_252:\n        /* \"#utility.yul\":8054:8312   */\n      pop\n        /* \"#utility.yul\":8005:8312   */\n      pop\n      pop\n      pop\n      jump\t// out\n        /* \"#utility.yul\":8318:8678   */\n    tag_134:\n        /* \"#utility.yul\":8404:8407   */\n      0x00\n        /* \"#utility.yul\":8432:8470   */\n      tag_254\n        /* \"#utility.yul\":8464:8469   */\n      dup3\n        /* \"#utility.yul\":8432:8470   */\n      tag_131\n      jump\t// in\n    tag_254:\n        /* \"#utility.yul\":8486:8556   */\n      tag_255\n        /* \"#utility.yul\":8549:8555   */\n      dup2\n        /* \"#utility.yul\":8544:8547   */\n      dup6\n        /* \"#utility.yul\":8486:8556   */\n      tag_132\n      jump\t// in\n    tag_255:\n        /* \"#utility.yul\":8479:8556   */\n      swap4\n      pop\n        /* \"#utility.yul\":8565:8617   */\n      tag_256\n        /* \"#utility.yul\":8610:8616   */\n      dup2\n        /* \"#utility.yul\":8605:8608   */\n      dup6\n        /* \"#utility.yul\":8598:8602   */\n      0x20\n        /* \"#utility.yul\":8591:8596   */\n      dup7\n        /* \"#utility.yul\":8587:8603   */\n      add\n        /* \"#utility.yul\":8565:8617   */\n      tag_133\n      jump\t// in\n    tag_256:\n        /* \"#utility.yul\":8642:8671   */\n      tag_257\n        /* \"#utility.yul\":8664:8670   */\n      dup2\n        /* \"#utility.yul\":8642:8671   */\n      tag_123\n      jump\t// in\n    tag_257:\n        /* \"#utility.yul\":8637:8640   */\n      dup5\n        /* \"#utility.yul\":8633:8672   */\n      add\n        /* \"#utility.yul\":8626:8672   */\n      swap2\n      pop\n        /* \"#utility.yul\":8408:8678   */\n      pop\n        /* \"#utility.yul\":8318:8678   */\n      swap3\n      swap2\n      pop\n      pop\n      jump\t// out\n        /* \"#utility.yul\":8684:8993   */\n    tag_63:\n        /* \"#utility.yul\":8795:8799   */\n      0x00\n        /* \"#utility.yul\":8833:8835   */\n      0x20\n        /* \"#utility.yul\":8822:8831   */\n      dup3\n        /* \"#utility.yul\":8818:8836   */\n      add\n        /* \"#utility.yul\":8810:8836   */\n      swap1\n      pop\n        /* \"#utility.yul\":8882:8891   */\n      dup2\n        /* \"#utility.yul\":8876:8880   */\n      dup2\n        /* \"#utility.yul\":8872:8892   */\n      sub\n        /* \"#utility.yul\":8868:8869   */\n      0x00\n        /* \"#utility.yul\":8857:8866   */\n      dup4\n        /* \"#utility.yul\":8853:8870   */\n      add\n        /* \"#utility.yul\":8846:8893   */\n      mstore\n        /* \"#utility.yul\":8910:8986   */\n      tag_259\n        /* \"#utility.yul\":8981:8985   */\n      dup2\n        /* \"#utility.yul\":8972:8978   */\n      dup5\n        /* \"#utility.yul\":8910:8986   */\n      tag_134\n      jump\t// in\n    tag_259:\n        /* \"#utility.yul\":8902:8986   */\n      swap1\n      pop\n        /* \"#utility.yul\":8684:8993   */\n      swap3\n      swap2\n      pop\n      pop\n      jump\t// out\n        /* \"#utility.yul\":8999:9168   */\n    tag_135:\n        /* \"#utility.yul\":9083:9094   */\n      0x00\n        /* \"#utility.yul\":9117:9123   */\n      dup3\n        /* \"#utility.yul\":9112:9115   */\n      dup3\n        /* \"#utility.yul\":9105:9124   */\n      mstore\n        /* \"#utility.yul\":9157:9161   */\n      0x20\n        /* \"#utility.yul\":9152:9155   */\n      dup3\n        /* \"#utility.yul\":9148:9162   */\n      add\n        /* \"#utility.yul\":9133:9162   */\n      swap1\n      pop\n        /* \"#utility.yul\":8999:9168   */\n      swap3\n      swap2\n      pop\n      pop\n      jump\t// out\n        /* \"#utility.yul\":9174:9355   */\n    tag_136:\n        /* \"#utility.yul\":9314:9347   */\n      0x796f7520617265206e6f7420746865206f776e65722c2061626f7274696e6700\n        /* \"#utility.yul\":9310:9311   */\n      0x00\n        /* \"#utility.yul\":9302:9308   */\n      dup3\n        /* \"#utility.yul\":9298:9312   */\n      add\n        /* \"#utility.yul\":9291:9348   */\n      mstore\n        /* \"#utility.yul\":9174:9355   */\n      pop\n      jump\t// out\n        /* \"#utility.yul\":9361:9727   */\n    tag_137:\n        /* \"#utility.yul\":9503:9506   */\n      0x00\n        /* \"#utility.yul\":9524:9591   */\n      tag_263\n        /* \"#utility.yul\":9588:9590   */\n      0x1f\n        /* \"#utility.yul\":9583:9586   */\n      dup4\n        /* \"#utility.yul\":9524:9591   */\n      tag_135\n      jump\t// in\n    tag_263:\n        /* \"#utility.yul\":9517:9591   */\n      swap2\n      pop\n        /* \"#utility.yul\":9600:9693   */\n      tag_264\n        /* \"#utility.yul\":9689:9692   */\n      dup3\n        /* \"#utility.yul\":9600:9693   */\n      tag_136\n      jump\t// in\n    tag_264:\n        /* \"#utility.yul\":9718:9720   */\n      0x20\n        /* \"#utility.yul\":9713:9716   */\n      dup3\n        /* \"#utility.yul\":9709:9721   */\n      add\n        /* \"#utility.yul\":9702:9721   */\n      swap1\n      pop\n        /* \"#utility.yul\":9361:9727   */\n      swap2\n      swap1\n      pop\n      jump\t// out\n        /* \"#utility.yul\":9733:10152   */\n    tag_67:\n        /* \"#utility.yul\":9899:9903   */\n      0x00\n        /* \"#utility.yul\":9937:9939   */\n      0x20\n        /* \"#utility.yul\":9926:9935   */\n      dup3\n        /* \"#utility.yul\":9922:9940   */\n      add\n        /* \"#utility.yul\":9914:9940   */\n      swap1\n      pop\n        /* \"#utility.yul\":9986:9995   */\n      dup2\n        /* \"#utility.yul\":9980:9984   */\n      dup2\n        /* \"#utility.yul\":9976:9996   */\n      sub\n        /* \"#utility.yul\":9972:9973   */\n      0x00\n        /* \"#utility.yul\":9961:9970   */\n      dup4\n        /* \"#utility.yul\":9957:9974   */\n      add\n        /* \"#utility.yul\":9950:9997   */\n      mstore\n        /* \"#utility.yul\":10014:10145   */\n      tag_266\n        /* \"#utility.yul\":10140:10144   */\n      dup2\n        /* \"#utility.yul\":10014:10145   */\n      tag_137\n      jump\t// in\n    tag_266:\n        /* \"#utility.yul\":10006:10145   */\n      swap1\n      pop\n        /* \"#utility.yul\":9733:10152   */\n      swap2\n      swap1\n      pop\n      jump\t// out\n        /* \"#utility.yul\":10158:10390   */\n    tag_138:\n        /* \"#utility.yul\":10298:10332   */\n      0x596f7520617265206e6f7420677561726469616e206f6620746869732077616c\n        /* \"#utility.yul\":10294:10295   */\n      0x00\n        /* \"#utility.yul\":10286:10292   */\n      dup3\n        /* \"#utility.yul\":10282:10296   */\n      add\n        /* \"#utility.yul\":10275:10333   */\n      mstore\n        /* \"#utility.yul\":10367:10382   */\n      0x6c65742c2061626f7274696e6700000000000000000000000000000000000000\n        /* \"#utility.yul\":10362:10364   */\n      0x20\n        /* \"#utility.yul\":10354:10360   */\n      dup3\n        /* \"#utility.yul\":10350:10365   */\n      add\n        /* \"#utility.yul\":10343:10383   */\n      mstore\n        /* \"#utility.yul\":10158:10390   */\n      pop\n      jump\t// out\n        /* \"#utility.yul\":10396:10762   */\n    tag_139:\n        /* \"#utility.yul\":10538:10541   */\n      0x00\n        /* \"#utility.yul\":10559:10626   */\n      tag_269\n        /* \"#utility.yul\":10623:10625   */\n      0x2d\n        /* \"#utility.yul\":10618:10621   */\n      dup4\n        /* \"#utility.yul\":10559:10626   */\n      tag_135\n      jump\t// in\n    tag_269:\n        /* \"#utility.yul\":10552:10626   */\n      swap2\n      pop\n        /* \"#utility.yul\":10635:10728   */\n      tag_270\n        /* \"#utility.yul\":10724:10727   */\n      dup3\n        /* \"#utility.yul\":10635:10728   */\n      tag_138\n      jump\t// in\n    tag_270:\n        /* \"#utility.yul\":10753:10755   */\n      0x40\n        /* \"#utility.yul\":10748:10751   */\n      dup3\n        /* \"#utility.yul\":10744:10756   */\n      add\n        /* \"#utility.yul\":10737:10756   */\n      swap1\n      pop\n        /* \"#utility.yul\":10396:10762   */\n      swap2\n      swap1\n      pop\n      jump\t// out\n        /* \"#utility.yul\":10768:11187   */\n    tag_76:\n        /* \"#utility.yul\":10934:10938   */\n      0x00\n        /* \"#utility.yul\":10972:10974   */\n      0x20\n        /* \"#utility.yul\":10961:10970   */\n      dup3\n        /* \"#utility.yul\":10957:10975   */\n      add\n        /* \"#utility.yul\":10949:10975   */\n      swap1\n      pop\n        /* \"#utility.yul\":11021:11030   */\n      dup2\n        /* \"#utility.yul\":11015:11019   */\n      dup2\n        /* \"#utility.yul\":11011:11031   */\n      sub\n        /* \"#utility.yul\":11007:11008   */\n      0x00\n        /* \"#utility.yul\":10996:11005   */\n      dup4\n        /* \"#utility.yul\":10992:11009   */\n      add\n        /* \"#utility.yul\":10985:11032   */\n      mstore\n        /* \"#utility.yul\":11049:11180   */\n      tag_272\n        /* \"#utility.yul\":11175:11179   */\n      dup2\n        /* \"#utility.yul\":11049:11180   */\n      tag_139\n      jump\t// in\n    tag_272:\n        /* \"#utility.yul\":11041:11180   */\n      swap1\n      pop\n        /* \"#utility.yul\":10768:11187   */\n      swap2\n      swap1\n      pop\n      jump\t// out\n        /* \"#utility.yul\":11193:11370   */\n    tag_140:\n        /* \"#utility.yul\":11333:11362   */\n      0x596f7520616c726561647920766f7465642c2061626f7274696e670000000000\n        /* \"#utility.yul\":11329:11330   */\n      0x00\n        /* \"#utility.yul\":11321:11327   */\n      dup3\n        /* \"#utility.yul\":11317:11331   */\n      add\n        /* \"#utility.yul\":11310:11363   */\n      mstore\n        /* \"#utility.yul\":11193:11370   */\n      pop\n      jump\t// out\n        /* \"#utility.yul\":11376:11742   */\n    tag_141:\n        /* \"#utility.yul\":11518:11521   */\n      0x00\n        /* \"#utility.yul\":11539:11606   */\n      tag_275\n        /* \"#utility.yul\":11603:11605   */\n      0x1b\n        /* \"#utility.yul\":11598:11601   */\n      dup4\n        /* \"#utility.yul\":11539:11606   */\n      tag_135\n      jump\t// in\n    tag_275:\n        /* \"#utility.yul\":11532:11606   */\n      swap2\n      pop\n        /* \"#utility.yul\":11615:11708   */\n      tag_276\n        /* \"#utility.yul\":11704:11707   */\n      dup3\n        /* \"#utility.yul\":11615:11708   */\n      tag_140\n      jump\t// in\n    tag_276:\n        /* \"#utility.yul\":11733:11735   */\n      0x20\n        /* \"#utility.yul\":11728:11731   */\n      dup3\n        /* \"#utility.yul\":11724:11736   */\n      add\n        /* \"#utility.yul\":11717:11736   */\n      swap1\n      pop\n        /* \"#utility.yul\":11376:11742   */\n      swap2\n      swap1\n      pop\n      jump\t// out\n        /* \"#utility.yul\":11748:12167   */\n    tag_79:\n        /* \"#utility.yul\":11914:11918   */\n      0x00\n        /* \"#utility.yul\":11952:11954   */\n      0x20\n        /* \"#utility.yul\":11941:11950   */\n      dup3\n        /* \"#utility.yul\":11937:11955   */\n      add\n        /* \"#utility.yul\":11929:11955   */\n      swap1\n      pop\n        /* \"#utility.yul\":12001:12010   */\n      dup2\n        /* \"#utility.yul\":11995:11999   */\n      dup2\n        /* \"#utility.yul\":11991:12011   */\n      sub\n        /* \"#utility.yul\":11987:11988   */\n      0x00\n        /* \"#utility.yul\":11976:11985   */\n      dup4\n        /* \"#utility.yul\":11972:11989   */\n      add\n        /* \"#utility.yul\":11965:12012   */\n      mstore\n        /* \"#utility.yul\":12029:12160   */\n      tag_278\n        /* \"#utility.yul\":12155:12159   */\n      dup2\n        /* \"#utility.yul\":12029:12160   */\n      tag_141\n      jump\t// in\n    tag_278:\n        /* \"#utility.yul\":12021:12160   */\n      swap1\n      pop\n        /* \"#utility.yul\":11748:12167   */\n      swap2\n      swap1\n      pop\n      jump\t// out\n        /* \"#utility.yul\":12173:12353   */\n    tag_142:\n        /* \"#utility.yul\":12221:12298   */\n      0x4e487b7100000000000000000000000000000000000000000000000000000000\n        /* \"#utility.yul\":12218:12219   */\n      0x00\n        /* \"#utility.yul\":12211:12299   */\n      mstore\n        /* \"#utility.yul\":12318:12322   */\n      0x11\n        /* \"#utility.yul\":12315:12316   */\n      0x04\n        /* \"#utility.yul\":12308:12323   */\n      mstore\n        /* \"#utility.yul\":12342:12346   */\n      0x24\n        /* \"#utility.yul\":12339:12340   */\n      0x00\n        /* \"#utility.yul\":12332:12347   */\n      revert\n        /* \"#utility.yul\":12359:12592   */\n    tag_82:\n        /* \"#utility.yul\":12398:12401   */\n      0x00\n        /* \"#utility.yul\":12421:12445   */\n      tag_281\n        /* \"#utility.yul\":12439:12444   */\n      dup3\n        /* \"#utility.yul\":12421:12445   */\n      tag_113\n      jump\t// in\n    tag_281:\n        /* \"#utility.yul\":12412:12445   */\n      swap2\n      pop\n        /* \"#utility.yul\":12467:12533   */\n      0xffffffffffffffffffffffffffffffffffffffffffffffffffffffffffffffff\n        /* \"#utility.yul\":12460:12465   */\n      dup3\n        /* \"#utility.yul\":12457:12534   */\n      sub\n        /* \"#utility.yul\":12454:12557   */\n      tag_282\n      jumpi\n        /* \"#utility.yul\":12537:12555   */\n      tag_283\n      tag_142\n      jump\t// in\n    tag_283:\n        /* \"#utility.yul\":12454:12557   */\n    tag_282:\n        /* \"#utility.yul\":12584:12585   */\n      0x01\n        /* \"#utility.yul\":12577:12582   */\n      dup3\n        /* \"#utility.yul\":12573:12586   */\n      add\n        /* \"#utility.yul\":12566:12586   */\n      swap1\n      pop\n        /* \"#utility.yul\":12359:12592   */\n      swap2\n      swap1\n      pop\n      jump\t// out\n        /* \"#utility.yul\":12598:12893   */\n    tag_143:\n        /* \"#utility.yul\":12738:12772   */\n      0x596f7520617265206e6f7420616c6c6f77656420746f2073656e6420616e7974\n        /* \"#utility.yul\":12734:12735   */\n      0x00\n        /* \"#utility.yul\":12726:12732   */\n      dup3\n        /* \"#utility.yul\":12722:12736   */\n      add\n        /* \"#utility.yul\":12715:12773   */\n      mstore\n        /* \"#utility.yul\":12807:12841   */\n      0x68696e672066726f6d207468697320736d61727420636f6e74726163742c2061\n        /* \"#utility.yul\":12802:12804   */\n      0x20\n        /* \"#utility.yul\":12794:12800   */\n      dup3\n        /* \"#utility.yul\":12790:12805   */\n      add\n        /* \"#utility.yul\":12783:12842   */\n      mstore\n        /* \"#utility.yul\":12876:12885   */\n      0x626f7274696e6700000000000000000000000000000000000000000000000000\n        /* \"#utility.yul\":12871:12873   */\n      0x40\n        /* \"#utility.yul\":12863:12869   */\n      dup3\n        /* \"#utility.yul\":12859:12874   */\n      add\n        /* \"#utility.yul\":12852:12886   */\n      mstore\n        /* \"#utility.yul\":12598:12893   */\n      pop\n      jump\t// out\n        /* \"#utility.yul\":12899:13265   */\n    tag_144:\n        /* \"#utility.yul\":13041:13044   */\n      0x00\n        /* \"#utility.yul\":13062:13129   */\n      tag_286\n        /* \"#utility.yul\":13126:13128   */\n      0x47\n        /* \"#utility.yul\":13121:13124   */\n      dup4\n        /* \"#utility.yul\":13062:13129   */\n      tag_135\n      jump\t// in\n    tag_286:\n        /* \"#utility.yul\":13055:13129   */\n      swap2\n      pop\n        /* \"#utility.yul\":13138:13231   */\n      tag_287\n        /* \"#utility.yul\":13227:13230   */\n      dup3\n        /* \"#utility.yul\":13138:13231   */\n      tag_143\n      jump\t// in\n    tag_287:\n        /* \"#utility.yul\":13256:13258   */\n      0x60\n        /* \"#utility.yul\":13251:13254   */\n      dup3\n        /* \"#utility.yul\":13247:13259   */\n      add\n        /* \"#utility.yul\":13240:13259   */\n      swap1\n      pop\n        /* \"#utility.yul\":12899:13265   */\n      swap2\n      swap1\n      pop\n      jump\t// out\n        /* \"#utility.yul\":13271:13690   */\n    tag_88:\n        /* \"#utility.yul\":13437:13441   */\n      0x00\n        /* \"#utility.yul\":13475:13477   */\n      0x20\n        /* \"#utility.yul\":13464:13473   */\n      dup3\n        /* \"#utility.yul\":13460:13478   */\n      add\n        /* \"#utility.yul\":13452:13478   */\n      swap1\n      pop\n        /* \"#utility.yul\":13524:13533   */\n      dup2\n        /* \"#utility.yul\":13518:13522   */\n      dup2\n        /* \"#utility.yul\":13514:13534   */\n      sub\n        /* \"#utility.yul\":13510:13511   */\n      0x00\n        /* \"#utility.yul\":13499:13508   */\n      dup4\n        /* \"#utility.yul\":13495:13512   */\n      add\n        /* \"#utility.yul\":13488:13535   */\n      mstore\n        /* \"#utility.yul\":13552:13683   */\n      tag_289\n        /* \"#utility.yul\":13678:13682   */\n      dup2\n        /* \"#utility.yul\":13552:13683   */\n      tag_144\n      jump\t// in\n    tag_289:\n        /* \"#utility.yul\":13544:13683   */\n      swap1\n      pop\n        /* \"#utility.yul\":13271:13690   */\n      swap2\n      swap1\n      pop\n      jump\t// out\n        /* \"#utility.yul\":13696:13944   */\n    tag_145:\n        /* \"#utility.yul\":13836:13870   */\n      0x596f752061726520747279696e6720746f2073656e64206d6f7265207468616e\n        /* \"#utility.yul\":13832:13833   */\n      0x00\n        /* \"#utility.yul\":13824:13830   */\n      dup3\n        /* \"#utility.yul\":13820:13834   */\n      add\n        /* \"#utility.yul\":13813:13871   */\n      mstore\n        /* \"#utility.yul\":13905:13936   */\n      0x20796f752061726520616c6c6f77656420746f2c2061626f7274696e67000000\n        /* \"#utility.yul\":13900:13902   */\n      0x20\n        /* \"#utility.yul\":13892:13898   */\n      dup3\n        /* \"#utility.yul\":13888:13903   */\n      add\n        /* \"#utility.yul\":13881:13937   */\n      mstore\n        /* \"#utility.yul\":13696:13944   */\n      pop\n      jump\t// out\n        /* \"#utility.yul\":13950:14316   */\n    tag_146:\n        /* \"#utility.yul\":14092:14095   */\n      0x00\n        /* \"#utility.yul\":14113:14180   */\n      tag_292\n        /* \"#utility.yul\":14177:14179   */\n      0x3d\n        /* \"#utility.yul\":14172:14175   */\n      dup4\n        /* \"#utility.yul\":14113:14180   */\n      tag_135\n      jump\t// in\n    tag_292:\n        /* \"#utility.yul\":14106:14180   */\n      swap2\n      pop\n        /* \"#utility.yul\":14189:14282   */\n      tag_293\n        /* \"#utility.yul\":14278:14281   */\n      dup3\n        /* \"#utility.yul\":14189:14282   */\n      tag_145\n      jump\t// in\n    tag_293:\n        /* \"#utility.yul\":14307:14309   */\n      0x40\n        /* \"#utility.yul\":14302:14305   */\n      dup3\n        /* \"#utility.yul\":14298:14310   */\n      add\n        /* \"#utility.yul\":14291:14310   */\n      swap1\n      pop\n        /* \"#utility.yul\":13950:14316   */\n      swap2\n      swap1\n      pop\n      jump\t// out\n        /* \"#utility.yul\":14322:14741   */\n    tag_91:\n        /* \"#utility.yul\":14488:14492   */\n      0x00\n        /* \"#utility.yul\":14526:14528   */\n      0x20\n        /* \"#utility.yul\":14515:14524   */\n      dup3\n        /* \"#utility.yul\":14511:14529   */\n      add\n        /* \"#utility.yul\":14503:14529   */\n      swap1\n      pop\n        /* \"#utility.yul\":14575:14584   */\n      dup2\n        /* \"#utility.yul\":14569:14573   */\n      dup2\n        /* \"#utility.yul\":14565:14585   */\n      sub\n        /* \"#utility.yul\":14561:14562   */\n      0x00\n        /* \"#utility.yul\":14550:14559   */\n      dup4\n        /* \"#utility.yul\":14546:14563   */\n      add\n        /* \"#utility.yul\":14539:14586   */\n      mstore\n        /* \"#utility.yul\":14603:14734   */\n      tag_295\n        /* \"#utility.yul\":14729:14733   */\n      dup2\n        /* \"#utility.yul\":14603:14734   */\n      tag_146\n      jump\t// in\n    tag_295:\n        /* \"#utility.yul\":14595:14734   */\n      swap1\n      pop\n        /* \"#utility.yul\":14322:14741   */\n      swap2\n      swap1\n      pop\n      jump\t// out\n        /* \"#utility.yul\":14747:14938   */\n    tag_93:\n        /* \"#utility.yul\":14787:14791   */\n      0x00\n        /* \"#utility.yul\":14807:14827   */\n      tag_297\n        /* \"#utility.yul\":14825:14826   */\n      dup3\n        /* \"#utility.yul\":14807:14827   */\n      tag_113\n      jump\t// in\n    tag_297:\n        /* \"#utility.yul\":14802:14827   */\n      swap2\n      pop\n        /* \"#utility.yul\":14841:14861   */\n      tag_298\n        /* \"#utility.yul\":14859:14860   */\n      dup4\n        /* \"#utility.yul\":14841:14861   */\n      tag_113\n      jump\t// in\n    tag_298:\n        /* \"#utility.yul\":14836:14861   */\n      swap3\n      pop\n        /* \"#utility.yul\":14880:14881   */\n      dup3\n        /* \"#utility.yul\":14877:14878   */\n      dup3\n        /* \"#utility.yul\":14874:14882   */\n      lt\n        /* \"#utility.yul\":14871:14905   */\n      iszero\n      tag_299\n      jumpi\n        /* \"#utility.yul\":14885:14903   */\n      tag_300\n      tag_142\n      jump\t// in\n    tag_300:\n        /* \"#utility.yul\":14871:14905   */\n    tag_299:\n        /* \"#utility.yul\":14930:14931   */\n      dup3\n        /* \"#utility.yul\":14927:14928   */\n      dup3\n        /* \"#utility.yul\":14923:14932   */\n      sub\n        /* \"#utility.yul\":14915:14932   */\n      swap1\n      pop\n        /* \"#utility.yul\":14747:14938   */\n      swap3\n      swap2\n      pop\n      pop\n      jump\t// out\n        /* \"#utility.yul\":14944:15091   */\n    tag_147:\n        /* \"#utility.yul\":15045:15056   */\n      0x00\n        /* \"#utility.yul\":15082:15085   */\n      dup2\n        /* \"#utility.yul\":15067:15085   */\n      swap1\n      pop\n        /* \"#utility.yul\":14944:15091   */\n      swap3\n      swap2\n      pop\n      pop\n      jump\t// out\n        /* \"#utility.yul\":15097:15470   */\n    tag_148:\n        /* \"#utility.yul\":15201:15204   */\n      0x00\n        /* \"#utility.yul\":15229:15267   */\n      tag_303\n        /* \"#utility.yul\":15261:15266   */\n      dup3\n        /* \"#utility.yul\":15229:15267   */\n      tag_131\n      jump\t// in\n    tag_303:\n        /* \"#utility.yul\":15283:15371   */\n      tag_304\n        /* \"#utility.yul\":15364:15370   */\n      dup2\n        /* \"#utility.yul\":15359:15362   */\n      dup6\n        /* \"#utility.yul\":15283:15371   */\n      tag_147\n      jump\t// in\n    tag_304:\n        /* \"#utility.yul\":15276:15371   */\n      swap4\n      pop\n        /* \"#utility.yul\":15380:15432   */\n      tag_305\n        /* \"#utility.yul\":15425:15431   */\n      dup2\n        /* \"#utility.yul\":15420:15423   */\n      dup6\n        /* \"#utility.yul\":15413:15417   */\n      0x20\n        /* \"#utility.yul\":15406:15411   */\n      dup7\n        /* \"#utility.yul\":15402:15418   */\n      add\n        /* \"#utility.yul\":15380:15432   */\n      tag_133\n      jump\t// in\n    tag_305:\n        /* \"#utility.yul\":15457:15463   */\n      dup1\n        /* \"#utility.yul\":15452:15455   */\n      dup5\n        /* \"#utility.yul\":15448:15464   */\n      add\n        /* \"#utility.yul\":15441:15464   */\n      swap2\n      pop\n        /* \"#utility.yul\":15205:15470   */\n      pop\n        /* \"#utility.yul\":15097:15470   */\n      swap3\n      swap2\n      pop\n      pop\n      jump\t// out\n        /* \"#utility.yul\":15476:15747   */\n    tag_95:\n        /* \"#utility.yul\":15606:15609   */\n      0x00\n        /* \"#utility.yul\":15628:15721   */\n      tag_307\n        /* \"#utility.yul\":15717:15720   */\n      dup3\n        /* \"#utility.yul\":15708:15714   */\n      dup5\n        /* \"#utility.yul\":15628:15721   */\n      tag_148\n      jump\t// in\n    tag_307:\n        /* \"#utility.yul\":15621:15721   */\n      swap2\n      pop\n        /* \"#utility.yul\":15738:15741   */\n      dup2\n        /* \"#utility.yul\":15731:15741   */\n      swap1\n      pop\n        /* \"#utility.yul\":15476:15747   */\n      swap3\n      swap2\n      pop\n      pop\n      jump\t// out\n        /* \"#utility.yul\":15753:15973   */\n    tag_149:\n        /* \"#utility.yul\":15893:15927   */\n      0x41626f7274696e672c2063616c6c20776173206e6f7420737563636573736675\n        /* \"#utility.yul\":15889:15890   */\n      0x00\n        /* \"#utility.yul\":15881:15887   */\n      dup3\n        /* \"#utility.yul\":15877:15891   */\n      add\n        /* \"#utility.yul\":15870:15928   */\n      mstore\n        /* \"#utility.yul\":15962:15965   */\n      0x6c00000000000000000000000000000000000000000000000000000000000000\n        /* \"#utility.yul\":15957:15959   */\n      0x20\n        /* \"#utility.yul\":15949:15955   */\n      dup3\n        /* \"#utility.yul\":15945:15960   */\n      add\n        /* \"#utility.yul\":15938:15966   */\n      mstore\n        /* \"#utility.yul\":15753:15973   */\n      pop\n      jump\t// out\n        /* \"#utility.yul\":15979:16345   */\n    tag_150:\n        /* \"#utility.yul\":16121:16124   */\n      0x00\n        /* \"#utility.yul\":16142:16209   */\n      tag_310\n        /* \"#utility.yul\":16206:16208   */\n      0x21\n        /* \"#utility.yul\":16201:16204   */\n      dup4\n        /* \"#utility.yul\":16142:16209   */\n      tag_135\n      jump\t// in\n    tag_310:\n        /* \"#utility.yul\":16135:16209   */\n      swap2\n      pop\n        /* \"#utility.yul\":16218:16311   */\n      tag_311\n        /* \"#utility.yul\":16307:16310   */\n      dup3\n        /* \"#utility.yul\":16218:16311   */\n      tag_149\n      jump\t// in\n    tag_311:\n        /* \"#utility.yul\":16336:16338   */\n      0x40\n        /* \"#utility.yul\":16331:16334   */\n      dup3\n        /* \"#utility.yul\":16327:16339   */\n      add\n        /* \"#utility.yul\":16320:16339   */\n      swap1\n      pop\n        /* \"#utility.yul\":15979:16345   */\n      swap2\n      swap1\n      pop\n      jump\t// out\n        /* \"#utility.yul\":16351:16770   */\n    tag_101:\n        /* \"#utility.yul\":16517:16521   */\n      0x00\n        /* \"#utility.yul\":16555:16557   */\n      0x20\n        /* \"#utility.yul\":16544:16553   */\n      dup3\n        /* \"#utility.yul\":16540:16558   */\n      add\n        /* \"#utility.yul\":16532:16558   */\n      swap1\n      pop\n        /* \"#utility.yul\":16604:16613   */\n      dup2\n        /* \"#utility.yul\":16598:16602   */\n      dup2\n        /* \"#utility.yul\":16594:16614   */\n      sub\n        /* \"#utility.yul\":16590:16591   */\n      0x00\n        /* \"#utility.yul\":16579:16588   */\n      dup4\n        /* \"#utility.yul\":16575:16592   */\n      add\n        /* \"#utility.yul\":16568:16615   */\n      mstore\n        /* \"#utility.yul\":16632:16763   */\n      tag_313\n        /* \"#utility.yul\":16758:16762   */\n      dup2\n        /* \"#utility.yul\":16632:16763   */\n      tag_150\n      jump\t// in\n    tag_313:\n        /* \"#utility.yul\":16624:16763   */\n      swap1\n      pop\n        /* \"#utility.yul\":16351:16770   */\n      swap2\n      swap1\n      pop\n      jump\t// out\n\n    auxdata: 0xa26469706673582212206cf1e8129c3d265f78c8ccb01b03ef29831c5e9bbad6eb1ea2e363472e08908564736f6c634300080f0033\n}\n",
				"bytecode": {
					"linkReferences": {},
					"object": "608060405234801561001057600080fd5b50336000806101000a81548173ffffffffffffffffffffffffffffffffffffffff021916908373ffffffffffffffffffffffffffffffffffffffff1602179055506113f5806100606000396000f3fe60806040526004361061008a5760003560e01c80633e5beab9116100595780633e5beab91461016257806383012be11461019f5780638da5cb5b146101ca578063b1f8100d146101f5578063be45fd621461021e57610091565b80630633b14a146100965780630bc605ad146100d35780632b8a1c5a14610110578063310ec4a71461013957610091565b3661009157005b600080fd5b3480156100a257600080fd5b506100bd60048036038101906100b89190610b07565b61025b565b6040516100ca9190610b4f565b60405180910390f35b3480156100df57600080fd5b506100fa60048036038101906100f59190610b07565b61027b565b6040516101079190610b4f565b60405180910390f35b34801561011c57600080fd5b5061013760048036038101906101329190610b96565b61029b565b005b34801561014557600080fd5b50610160600480360381019061015b9190610c0c565b610384565b005b34801561016e57600080fd5b5061018960048036038101906101849190610b07565b610519565b6040516101969190610c5b565b60405180910390f35b3480156101ab57600080fd5b506101b4610531565b6040516101c19190610c5b565b60405180910390f35b3480156101d657600080fd5b506101df610536565b6040516101ec9190610c97565b60405180910390f35b34801561020157600080fd5b5061021c60048036038101906102179190610cde565b61055a565b005b34801561022a57600080fd5b5061024560048036038101906102409190610e51565b61081f565b6040516102529190610f48565b60405180910390f35b60036020528060005260406000206000915054906101000a900460ff1681565b60026020528060005260406000206000915054906101000a900460ff1681565b60008054906101000a900473ffffffffffffffffffffffffffffffffffffffff1673ffffffffffffffffffffffffffffffffffffffff163373ffffffffffffffffffffffffffffffffffffffff1614610329576040517f08c379a000000000000000000000000000000000000000000000000000000000815260040161032090610fc7565b60405180910390fd5b80600360008473ffffffffffffffffffffffffffffffffffffffff1673ffffffffffffffffffffffffffffffffffffffff16815260200190815260200160002060006101000a81548160ff0219169083151502179055505050565b60008054906101000a900473ffffffffffffffffffffffffffffffffffffffff1673ffffffffffffffffffffffffffffffffffffffff163373ffffffffffffffffffffffffffffffffffffffff1614610412576040517f08c379a000000000000000000000000000000000000000000000000000000000815260040161040990610fc7565b60405180910390fd5b80600160008473ffffffffffffffffffffffffffffffffffffffff1673ffffffffffffffffffffffffffffffffffffffff1681526020019081526020016000208190555060008111156104bc576001600260008473ffffffffffffffffffffffffffffffffffffffff1673ffffffffffffffffffffffffffffffffffffffff16815260200190815260200160002060006101000a81548160ff021916908315150217905550610515565b6000600260008473ffffffffffffffffffffffffffffffffffffffff1673ffffffffffffffffffffffffffffffffffffffff16815260200190815260200160002060006101000a81548160ff0219169083151502179055505b5050565b60016020528060005260406000206000915090505481565b600381565b60008054906101000a900473ffffffffffffffffffffffffffffffffffffffff1681565b600360003373ffffffffffffffffffffffffffffffffffffffff1673ffffffffffffffffffffffffffffffffffffffff16815260200190815260200160002060009054906101000a900460ff166105e6576040517f08c379a00000000000000000000000000000000000000000000000000000000081526004016105dd90611059565b60405180910390fd5b60001515600560008373ffffffffffffffffffffffffffffffffffffffff1673ffffffffffffffffffffffffffffffffffffffff16815260200190815260200160002060003373ffffffffffffffffffffffffffffffffffffffff1673ffffffffffffffffffffffffffffffffffffffff16815260200190815260200160002060009054906101000a900460ff161515146106b6576040517f08c379a00000000000000000000000000000000000000000000000000000000081526004016106ad906110c5565b60405180910390fd5b600460009054906101000a900473ffffffffffffffffffffffffffffffffffffffff1673ffffffffffffffffffffffffffffffffffffffff168173ffffffffffffffffffffffffffffffffffffffff16146107555780600460006101000a81548173ffffffffffffffffffffffffffffffffffffffff021916908373ffffffffffffffffffffffffffffffffffffffff16021790555060006006819055505b6006600081548092919061076890611114565b919050555060036006541061081c57600460009054906101000a900473ffffffffffffffffffffffffffffffffffffffff166000806101000a81548173ffffffffffffffffffffffffffffffffffffffff021916908373ffffffffffffffffffffffffffffffffffffffff1602179055506000600460006101000a81548173ffffffffffffffffffffffffffffffffffffffff021916908373ffffffffffffffffffffffffffffffffffffffff1602179055505b50565b606060008054906101000a900473ffffffffffffffffffffffffffffffffffffffff1673ffffffffffffffffffffffffffffffffffffffff163373ffffffffffffffffffffffffffffffffffffffff16146109d957600260003373ffffffffffffffffffffffffffffffffffffffff1673ffffffffffffffffffffffffffffffffffffffff16815260200190815260200160002060009054906101000a900460ff16610900576040517f08c379a00000000000000000000000000000000000000000000000000000000081526004016108f7906111f4565b60405180910390fd5b82600160003373ffffffffffffffffffffffffffffffffffffffff1673ffffffffffffffffffffffffffffffffffffffff168152602001908152602001600020541015610982576040517f08c379a000000000000000000000000000000000000000000000000000000000815260040161097990611286565b60405180910390fd5b82600160003373ffffffffffffffffffffffffffffffffffffffff1673ffffffffffffffffffffffffffffffffffffffff16815260200190815260200160002060008282546109d191906112a6565b925050819055505b6000808573ffffffffffffffffffffffffffffffffffffffff168585604051610a029190611316565b60006040518083038185875af1925050503d8060008114610a3f576040519150601f19603f3d011682016040523d82523d6000602084013e610a44565b606091505b509150915081610a89576040517f08c379a0000000000000000000000000000000000000000000000000000000008152600401610a809061139f565b60405180910390fd5b80925050509392505050565b6000604051905090565b600080fd5b600080fd5b600073ffffffffffffffffffffffffffffffffffffffff82169050919050565b6000610ad482610aa9565b9050919050565b610ae481610ac9565b8114610aef57600080fd5b50565b600081359050610b0181610adb565b92915050565b600060208284031215610b1d57610b1c610a9f565b5b6000610b2b84828501610af2565b91505092915050565b60008115159050919050565b610b4981610b34565b82525050565b6000602082019050610b646000830184610b40565b92915050565b610b7381610b34565b8114610b7e57600080fd5b50565b600081359050610b9081610b6a565b92915050565b60008060408385031215610bad57610bac610a9f565b5b6000610bbb85828601610af2565b9250506020610bcc85828601610b81565b9150509250929050565b6000819050919050565b610be981610bd6565b8114610bf457600080fd5b50565b600081359050610c0681610be0565b92915050565b60008060408385031215610c2357610c22610a9f565b5b6000610c3185828601610af2565b9250506020610c4285828601610bf7565b9150509250929050565b610c5581610bd6565b82525050565b6000602082019050610c706000830184610c4c565b92915050565b6000610c8182610aa9565b9050919050565b610c9181610c76565b82525050565b6000602082019050610cac6000830184610c88565b92915050565b610cbb81610c76565b8114610cc657600080fd5b50565b600081359050610cd881610cb2565b92915050565b600060208284031215610cf457610cf3610a9f565b5b6000610d0284828501610cc9565b91505092915050565b600080fd5b600080fd5b6000601f19601f8301169050919050565b7f4e487b7100000000000000000000000000000000000000000000000000000000600052604160045260246000fd5b610d5e82610d15565b810181811067ffffffffffffffff82111715610d7d57610d7c610d26565b5b80604052505050565b6000610d90610a95565b9050610d9c8282610d55565b919050565b600067ffffffffffffffff821115610dbc57610dbb610d26565b5b610dc582610d15565b9050602081019050919050565b82818337600083830152505050565b6000610df4610def84610da1565b610d86565b905082815260208101848484011115610e1057610e0f610d10565b5b610e1b848285610dd2565b509392505050565b600082601f830112610e3857610e37610d0b565b5b8135610e48848260208601610de1565b91505092915050565b600080600060608486031215610e6a57610e69610a9f565b5b6000610e7886828701610cc9565b9350506020610e8986828701610bf7565b925050604084013567ffffffffffffffff811115610eaa57610ea9610aa4565b5b610eb686828701610e23565b9150509250925092565b600081519050919050565b600082825260208201905092915050565b60005b83811015610efa578082015181840152602081019050610edf565b83811115610f09576000848401525b50505050565b6000610f1a82610ec0565b610f248185610ecb565b9350610f34818560208601610edc565b610f3d81610d15565b840191505092915050565b60006020820190508181036000830152610f628184610f0f565b905092915050565b600082825260208201905092915050565b7f796f7520617265206e6f7420746865206f776e65722c2061626f7274696e6700600082015250565b6000610fb1601f83610f6a565b9150610fbc82610f7b565b602082019050919050565b60006020820190508181036000830152610fe081610fa4565b9050919050565b7f596f7520617265206e6f7420677561726469616e206f6620746869732077616c60008201527f6c65742c2061626f7274696e6700000000000000000000000000000000000000602082015250565b6000611043602d83610f6a565b915061104e82610fe7565b604082019050919050565b6000602082019050818103600083015261107281611036565b9050919050565b7f596f7520616c726561647920766f7465642c2061626f7274696e670000000000600082015250565b60006110af601b83610f6a565b91506110ba82611079565b602082019050919050565b600060208201905081810360008301526110de816110a2565b9050919050565b7f4e487b7100000000000000000000000000000000000000000000000000000000600052601160045260246000fd5b600061111f82610bd6565b91507fffffffffffffffffffffffffffffffffffffffffffffffffffffffffffffffff8203611151576111506110e5565b5b600182019050919050565b7f596f7520617265206e6f7420616c6c6f77656420746f2073656e6420616e797460008201527f68696e672066726f6d207468697320736d61727420636f6e74726163742c206160208201527f626f7274696e6700000000000000000000000000000000000000000000000000604082015250565b60006111de604783610f6a565b91506111e98261115c565b606082019050919050565b6000602082019050818103600083015261120d816111d1565b9050919050565b7f596f752061726520747279696e6720746f2073656e64206d6f7265207468616e60008201527f20796f752061726520616c6c6f77656420746f2c2061626f7274696e67000000602082015250565b6000611270603d83610f6a565b915061127b82611214565b604082019050919050565b6000602082019050818103600083015261129f81611263565b9050919050565b60006112b182610bd6565b91506112bc83610bd6565b9250828210156112cf576112ce6110e5565b5b828203905092915050565b600081905092915050565b60006112f082610ec0565b6112fa81856112da565b935061130a818560208601610edc565b80840191505092915050565b600061132282846112e5565b915081905092915050565b7f41626f7274696e672c2063616c6c20776173206e6f742073756363657373667560008201527f6c00000000000000000000000000000000000000000000000000000000000000602082015250565b6000611389602183610f6a565b91506113948261132d565b604082019050919050565b600060208201905081810360008301526113b88161137c565b905091905056fea26469706673582212206cf1e8129c3d265f78c8ccb01b03ef29831c5e9bbad6eb1ea2e363472e08908564736f6c634300080f0033",
					"opcodes": "PUSH1 0x80 PUSH1 0x40 MSTORE CALLVALUE DUP1 ISZERO PUSH2 0x10 JUMPI PUSH1 0x0 DUP1 REVERT JUMPDEST POP CALLER PUSH1 0x0 DUP1 PUSH2 0x100 EXP DUP2 SLOAD DUP2 PUSH20 0xFFFFFFFFFFFFFFFFFFFFFFFFFFFFFFFFFFFFFFFF MUL NOT AND SWAP1 DUP4 PUSH20 0xFFFFFFFFFFFFFFFFFFFFFFFFFFFFFFFFFFFFFFFF AND MUL OR SWAP1 SSTORE POP PUSH2 0x13F5 DUP1 PUSH2 0x60 PUSH1 0x0 CODECOPY PUSH1 0x0 RETURN INVALID PUSH1 0x80 PUSH1 0x40 MSTORE PUSH1 0x4 CALLDATASIZE LT PUSH2 0x8A JUMPI PUSH1 0x0 CALLDATALOAD PUSH1 0xE0 SHR DUP1 PUSH4 0x3E5BEAB9 GT PUSH2 0x59 JUMPI DUP1 PUSH4 0x3E5BEAB9 EQ PUSH2 0x162 JUMPI DUP1 PUSH4 0x83012BE1 EQ PUSH2 0x19F JUMPI DUP1 PUSH4 0x8DA5CB5B EQ PUSH2 0x1CA JUMPI DUP1 PUSH4 0xB1F8100D EQ PUSH2 0x1F5 JUMPI DUP1 PUSH4 0xBE45FD62 EQ PUSH2 0x21E JUMPI PUSH2 0x91 JUMP JUMPDEST DUP1 PUSH4 0x633B14A EQ PUSH2 0x96 JUMPI DUP1 PUSH4 0xBC605AD EQ PUSH2 0xD3 JUMPI DUP1 PUSH4 0x2B8A1C5A EQ PUSH2 0x110 JUMPI DUP1 PUSH4 0x310EC4A7 EQ PUSH2 0x139 JUMPI PUSH2 0x91 JUMP JUMPDEST CALLDATASIZE PUSH2 0x91 JUMPI STOP JUMPDEST PUSH1 0x0 DUP1 REVERT JUMPDEST CALLVALUE DUP1 ISZERO PUSH2 0xA2 JUMPI PUSH1 0x0 DUP1 REVERT JUMPDEST POP PUSH2 0xBD PUSH1 0x4 DUP1 CALLDATASIZE SUB DUP2 ADD SWAP1 PUSH2 0xB8 SWAP2 SWAP1 PUSH2 0xB07 JUMP JUMPDEST PUSH2 0x25B JUMP JUMPDEST PUSH1 0x40 MLOAD PUSH2 0xCA SWAP2 SWAP1 PUSH2 0xB4F JUMP JUMPDEST PUSH1 0x40 MLOAD DUP1 SWAP2 SUB SWAP1 RETURN JUMPDEST CALLVALUE DUP1 ISZERO PUSH2 0xDF JUMPI PUSH1 0x0 DUP1 REVERT JUMPDEST POP PUSH2 0xFA PUSH1 0x4 DUP1 CALLDATASIZE SUB DUP2 ADD SWAP1 PUSH2 0xF5 SWAP2 SWAP1 PUSH2 0xB07 JUMP JUMPDEST PUSH2 0x27B JUMP JUMPDEST PUSH1 0x40 MLOAD PUSH2 0x107 SWAP2 SWAP1 PUSH2 0xB4F JUMP JUMPDEST PUSH1 0x40 MLOAD DUP1 SWAP2 SUB SWAP1 RETURN JUMPDEST CALLVALUE DUP1 ISZERO PUSH2 0x11C JUMPI PUSH1 0x0 DUP1 REVERT JUMPDEST POP PUSH2 0x137 PUSH1 0x4 DUP1 CALLDATASIZE SUB DUP2 ADD SWAP1 PUSH2 0x132 SWAP2 SWAP1 PUSH2 0xB96 JUMP JUMPDEST PUSH2 0x29B JUMP JUMPDEST STOP JUMPDEST CALLVALUE DUP1 ISZERO PUSH2 0x145 JUMPI PUSH1 0x0 DUP1 REVERT JUMPDEST POP PUSH2 0x160 PUSH1 0x4 DUP1 CALLDATASIZE SUB DUP2 ADD SWAP1 PUSH2 0x15B SWAP2 SWAP1 PUSH2 0xC0C JUMP JUMPDEST PUSH2 0x384 JUMP JUMPDEST STOP JUMPDEST CALLVALUE DUP1 ISZERO PUSH2 0x16E JUMPI PUSH1 0x0 DUP1 REVERT JUMPDEST POP PUSH2 0x189 PUSH1 0x4 DUP1 CALLDATASIZE SUB DUP2 ADD SWAP1 PUSH2 0x184 SWAP2 SWAP1 PUSH2 0xB07 JUMP JUMPDEST PUSH2 0x519 JUMP JUMPDEST PUSH1 0x40 MLOAD PUSH2 0x196 SWAP2 SWAP1 PUSH2 0xC5B JUMP JUMPDEST PUSH1 0x40 MLOAD DUP1 SWAP2 SUB SWAP1 RETURN JUMPDEST CALLVALUE DUP1 ISZERO PUSH2 0x1AB JUMPI PUSH1 0x0 DUP1 REVERT JUMPDEST POP PUSH2 0x1B4 PUSH2 0x531 JUMP JUMPDEST PUSH1 0x40 MLOAD PUSH2 0x1C1 SWAP2 SWAP1 PUSH2 0xC5B JUMP JUMPDEST PUSH1 0x40 MLOAD DUP1 SWAP2 SUB SWAP1 RETURN JUMPDEST CALLVALUE DUP1 ISZERO PUSH2 0x1D6 JUMPI PUSH1 0x0 DUP1 REVERT JUMPDEST POP PUSH2 0x1DF PUSH2 0x536 JUMP JUMPDEST PUSH1 0x40 MLOAD PUSH2 0x1EC SWAP2 SWAP1 PUSH2 0xC97 JUMP JUMPDEST PUSH1 0x40 MLOAD DUP1 SWAP2 SUB SWAP1 RETURN JUMPDEST CALLVALUE DUP1 ISZERO PUSH2 0x201 JUMPI PUSH1 0x0 DUP1 REVERT JUMPDEST POP PUSH2 0x21C PUSH1 0x4 DUP1 CALLDATASIZE SUB DUP2 ADD SWAP1 PUSH2 0x217 SWAP2 SWAP1 PUSH2 0xCDE JUMP JUMPDEST PUSH2 0x55A JUMP JUMPDEST STOP JUMPDEST CALLVALUE DUP1 ISZERO PUSH2 0x22A JUMPI PUSH1 0x0 DUP1 REVERT JUMPDEST POP PUSH2 0x245 PUSH1 0x4 DUP1 CALLDATASIZE SUB DUP2 ADD SWAP1 PUSH2 0x240 SWAP2 SWAP1 PUSH2 0xE51 JUMP JUMPDEST PUSH2 0x81F JUMP JUMPDEST PUSH1 0x40 MLOAD PUSH2 0x252 SWAP2 SWAP1 PUSH2 0xF48 JUMP JUMPDEST PUSH1 0x40 MLOAD DUP1 SWAP2 SUB SWAP1 RETURN JUMPDEST PUSH1 0x3 PUSH1 0x20 MSTORE DUP1 PUSH1 0x0 MSTORE PUSH1 0x40 PUSH1 0x0 KECCAK256 PUSH1 0x0 SWAP2 POP SLOAD SWAP1 PUSH2 0x100 EXP SWAP1 DIV PUSH1 0xFF AND DUP2 JUMP JUMPDEST PUSH1 0x2 PUSH1 0x20 MSTORE DUP1 PUSH1 0x0 MSTORE PUSH1 0x40 PUSH1 0x0 KECCAK256 PUSH1 0x0 SWAP2 POP SLOAD SWAP1 PUSH2 0x100 EXP SWAP1 DIV PUSH1 0xFF AND DUP2 JUMP JUMPDEST PUSH1 0x0 DUP1 SLOAD SWAP1 PUSH2 0x100 EXP SWAP1 DIV PUSH20 0xFFFFFFFFFFFFFFFFFFFFFFFFFFFFFFFFFFFFFFFF AND PUSH20 0xFFFFFFFFFFFFFFFFFFFFFFFFFFFFFFFFFFFFFFFF AND CALLER PUSH20 0xFFFFFFFFFFFFFFFFFFFFFFFFFFFFFFFFFFFFFFFF AND EQ PUSH2 0x329 JUMPI PUSH1 0x40 MLOAD PUSH32 0x8C379A000000000000000000000000000000000000000000000000000000000 DUP2 MSTORE PUSH1 0x4 ADD PUSH2 0x320 SWAP1 PUSH2 0xFC7 JUMP JUMPDEST PUSH1 0x40 MLOAD DUP1 SWAP2 SUB SWAP1 REVERT JUMPDEST DUP1 PUSH1 0x3 PUSH1 0x0 DUP5 PUSH20 0xFFFFFFFFFFFFFFFFFFFFFFFFFFFFFFFFFFFFFFFF AND PUSH20 0xFFFFFFFFFFFFFFFFFFFFFFFFFFFFFFFFFFFFFFFF AND DUP2 MSTORE PUSH1 0x20 ADD SWAP1 DUP2 MSTORE PUSH1 0x20 ADD PUSH1 0x0 KECCAK256 PUSH1 0x0 PUSH2 0x100 EXP DUP2 SLOAD DUP2 PUSH1 0xFF MUL NOT AND SWAP1 DUP4 ISZERO ISZERO MUL OR SWAP1 SSTORE POP POP POP JUMP JUMPDEST PUSH1 0x0 DUP1 SLOAD SWAP1 PUSH2 0x100 EXP SWAP1 DIV PUSH20 0xFFFFFFFFFFFFFFFFFFFFFFFFFFFFFFFFFFFFFFFF AND PUSH20 0xFFFFFFFFFFFFFFFFFFFFFFFFFFFFFFFFFFFFFFFF AND CALLER PUSH20 0xFFFFFFFFFFFFFFFFFFFFFFFFFFFFFFFFFFFFFFFF AND EQ PUSH2 0x412 JUMPI PUSH1 0x40 MLOAD PUSH32 0x8C379A000000000000000000000000000000000000000000000000000000000 DUP2 MSTORE PUSH1 0x4 ADD PUSH2 0x409 SWAP1 PUSH2 0xFC7 JUMP JUMPDEST PUSH1 0x40 MLOAD DUP1 SWAP2 SUB SWAP1 REVERT JUMPDEST DUP1 PUSH1 0x1 PUSH1 0x0 DUP5 PUSH20 0xFFFFFFFFFFFFFFFFFFFFFFFFFFFFFFFFFFFFFFFF AND PUSH20 0xFFFFFFFFFFFFFFFFFFFFFFFFFFFFFFFFFFFFFFFF AND DUP2 MSTORE PUSH1 0x20 ADD SWAP1 DUP2 MSTORE PUSH1 0x20 ADD PUSH1 0x0 KECCAK256 DUP2 SWAP1 SSTORE POP PUSH1 0x0 DUP2 GT ISZERO PUSH2 0x4BC JUMPI PUSH1 0x1 PUSH1 0x2 PUSH1 0x0 DUP5 PUSH20 0xFFFFFFFFFFFFFFFFFFFFFFFFFFFFFFFFFFFFFFFF AND PUSH20 0xFFFFFFFFFFFFFFFFFFFFFFFFFFFFFFFFFFFFFFFF AND DUP2 MSTORE PUSH1 0x20 ADD SWAP1 DUP2 MSTORE PUSH1 0x20 ADD PUSH1 0x0 KECCAK256 PUSH1 0x0 PUSH2 0x100 EXP DUP2 SLOAD DUP2 PUSH1 0xFF MUL NOT AND SWAP1 DUP4 ISZERO ISZERO MUL OR SWAP1 SSTORE POP PUSH2 0x515 JUMP JUMPDEST PUSH1 0x0 PUSH1 0x2 PUSH1 0x0 DUP5 PUSH20 0xFFFFFFFFFFFFFFFFFFFFFFFFFFFFFFFFFFFFFFFF AND PUSH20 0xFFFFFFFFFFFFFFFFFFFFFFFFFFFFFFFFFFFFFFFF AND DUP2 MSTORE PUSH1 0x20 ADD SWAP1 DUP2 MSTORE PUSH1 0x20 ADD PUSH1 0x0 KECCAK256 PUSH1 0x0 PUSH2 0x100 EXP DUP2 SLOAD DUP2 PUSH1 0xFF MUL NOT AND SWAP1 DUP4 ISZERO ISZERO MUL OR SWAP1 SSTORE POP JUMPDEST POP POP JUMP JUMPDEST PUSH1 0x1 PUSH1 0x20 MSTORE DUP1 PUSH1 0x0 MSTORE PUSH1 0x40 PUSH1 0x0 KECCAK256 PUSH1 0x0 SWAP2 POP SWAP1 POP SLOAD DUP2 JUMP JUMPDEST PUSH1 0x3 DUP2 JUMP JUMPDEST PUSH1 0x0 DUP1 SLOAD SWAP1 PUSH2 0x100 EXP SWAP1 DIV PUSH20 0xFFFFFFFFFFFFFFFFFFFFFFFFFFFFFFFFFFFFFFFF AND DUP2 JUMP JUMPDEST PUSH1 0x3 PUSH1 0x0 CALLER PUSH20 0xFFFFFFFFFFFFFFFFFFFFFFFFFFFFFFFFFFFFFFFF AND PUSH20 0xFFFFFFFFFFFFFFFFFFFFFFFFFFFFFFFFFFFFFFFF AND DUP2 MSTORE PUSH1 0x20 ADD SWAP1 DUP2 MSTORE PUSH1 0x20 ADD PUSH1 0x0 KECCAK256 PUSH1 0x0 SWAP1 SLOAD SWAP1 PUSH2 0x100 EXP SWAP1 DIV PUSH1 0xFF AND PUSH2 0x5E6 JUMPI PUSH1 0x40 MLOAD PUSH32 0x8C379A000000000000000000000000000000000000000000000000000000000 DUP2 MSTORE PUSH1 0x4 ADD PUSH2 0x5DD SWAP1 PUSH2 0x1059 JUMP JUMPDEST PUSH1 0x40 MLOAD DUP1 SWAP2 SUB SWAP1 REVERT JUMPDEST PUSH1 0x0 ISZERO ISZERO PUSH1 0x5 PUSH1 0x0 DUP4 PUSH20 0xFFFFFFFFFFFFFFFFFFFFFFFFFFFFFFFFFFFFFFFF AND PUSH20 0xFFFFFFFFFFFFFFFFFFFFFFFFFFFFFFFFFFFFFFFF AND DUP2 MSTORE PUSH1 0x20 ADD SWAP1 DUP2 MSTORE PUSH1 0x20 ADD PUSH1 0x0 KECCAK256 PUSH1 0x0 CALLER PUSH20 0xFFFFFFFFFFFFFFFFFFFFFFFFFFFFFFFFFFFFFFFF AND PUSH20 0xFFFFFFFFFFFFFFFFFFFFFFFFFFFFFFFFFFFFFFFF AND DUP2 MSTORE PUSH1 0x20 ADD SWAP1 DUP2 MSTORE PUSH1 0x20 ADD PUSH1 0x0 KECCAK256 PUSH1 0x0 SWAP1 SLOAD SWAP1 PUSH2 0x100 EXP SWAP1 DIV PUSH1 0xFF AND ISZERO ISZERO EQ PUSH2 0x6B6 JUMPI PUSH1 0x40 MLOAD PUSH32 0x8C379A000000000000000000000000000000000000000000000000000000000 DUP2 MSTORE PUSH1 0x4 ADD PUSH2 0x6AD SWAP1 PUSH2 0x10C5 JUMP JUMPDEST PUSH1 0x40 MLOAD DUP1 SWAP2 SUB SWAP1 REVERT JUMPDEST PUSH1 0x4 PUSH1 0x0 SWAP1 SLOAD SWAP1 PUSH2 0x100 EXP SWAP1 DIV PUSH20 0xFFFFFFFFFFFFFFFFFFFFFFFFFFFFFFFFFFFFFFFF AND PUSH20 0xFFFFFFFFFFFFFFFFFFFFFFFFFFFFFFFFFFFFFFFF AND DUP2 PUSH20 0xFFFFFFFFFFFFFFFFFFFFFFFFFFFFFFFFFFFFFFFF AND EQ PUSH2 0x755 JUMPI DUP1 PUSH1 0x4 PUSH1 0x0 PUSH2 0x100 EXP DUP2 SLOAD DUP2 PUSH20 0xFFFFFFFFFFFFFFFFFFFFFFFFFFFFFFFFFFFFFFFF MUL NOT AND SWAP1 DUP4 PUSH20 0xFFFFFFFFFFFFFFFFFFFFFFFFFFFFFFFFFFFFFFFF AND MUL OR SWAP1 SSTORE POP PUSH1 0x0 PUSH1 0x6 DUP2 SWAP1 SSTORE POP JUMPDEST PUSH1 0x6 PUSH1 0x0 DUP2 SLOAD DUP1 SWAP3 SWAP2 SWAP1 PUSH2 0x768 SWAP1 PUSH2 0x1114 JUMP JUMPDEST SWAP2 SWAP1 POP SSTORE POP PUSH1 0x3 PUSH1 0x6 SLOAD LT PUSH2 0x81C JUMPI PUSH1 0x4 PUSH1 0x0 SWAP1 SLOAD SWAP1 PUSH2 0x100 EXP SWAP1 DIV PUSH20 0xFFFFFFFFFFFFFFFFFFFFFFFFFFFFFFFFFFFFFFFF AND PUSH1 0x0 DUP1 PUSH2 0x100 EXP DUP2 SLOAD DUP2 PUSH20 0xFFFFFFFFFFFFFFFFFFFFFFFFFFFFFFFFFFFFFFFF MUL NOT AND SWAP1 DUP4 PUSH20 0xFFFFFFFFFFFFFFFFFFFFFFFFFFFFFFFFFFFFFFFF AND MUL OR SWAP1 SSTORE POP PUSH1 0x0 PUSH1 0x4 PUSH1 0x0 PUSH2 0x100 EXP DUP2 SLOAD DUP2 PUSH20 0xFFFFFFFFFFFFFFFFFFFFFFFFFFFFFFFFFFFFFFFF MUL NOT AND SWAP1 DUP4 PUSH20 0xFFFFFFFFFFFFFFFFFFFFFFFFFFFFFFFFFFFFFFFF AND MUL OR SWAP1 SSTORE POP JUMPDEST POP JUMP JUMPDEST PUSH1 0x60 PUSH1 0x0 DUP1 SLOAD SWAP1 PUSH2 0x100 EXP SWAP1 DIV PUSH20 0xFFFFFFFFFFFFFFFFFFFFFFFFFFFFFFFFFFFFFFFF AND PUSH20 0xFFFFFFFFFFFFFFFFFFFFFFFFFFFFFFFFFFFFFFFF AND CALLER PUSH20 0xFFFFFFFFFFFFFFFFFFFFFFFFFFFFFFFFFFFFFFFF AND EQ PUSH2 0x9D9 JUMPI PUSH1 0x2 PUSH1 0x0 CALLER PUSH20 0xFFFFFFFFFFFFFFFFFFFFFFFFFFFFFFFFFFFFFFFF AND PUSH20 0xFFFFFFFFFFFFFFFFFFFFFFFFFFFFFFFFFFFFFFFF AND DUP2 MSTORE PUSH1 0x20 ADD SWAP1 DUP2 MSTORE PUSH1 0x20 ADD PUSH1 0x0 KECCAK256 PUSH1 0x0 SWAP1 SLOAD SWAP1 PUSH2 0x100 EXP SWAP1 DIV PUSH1 0xFF AND PUSH2 0x900 JUMPI PUSH1 0x40 MLOAD PUSH32 0x8C379A000000000000000000000000000000000000000000000000000000000 DUP2 MSTORE PUSH1 0x4 ADD PUSH2 0x8F7 SWAP1 PUSH2 0x11F4 JUMP JUMPDEST PUSH1 0x40 MLOAD DUP1 SWAP2 SUB SWAP1 REVERT JUMPDEST DUP3 PUSH1 0x1 PUSH1 0x0 CALLER PUSH20 0xFFFFFFFFFFFFFFFFFFFFFFFFFFFFFFFFFFFFFFFF AND PUSH20 0xFFFFFFFFFFFFFFFFFFFFFFFFFFFFFFFFFFFFFFFF AND DUP2 MSTORE PUSH1 0x20 ADD SWAP1 DUP2 MSTORE PUSH1 0x20 ADD PUSH1 0x0 KECCAK256 SLOAD LT ISZERO PUSH2 0x982 JUMPI PUSH1 0x40 MLOAD PUSH32 0x8C379A000000000000000000000000000000000000000000000000000000000 DUP2 MSTORE PUSH1 0x4 ADD PUSH2 0x979 SWAP1 PUSH2 0x1286 JUMP JUMPDEST PUSH1 0x40 MLOAD DUP1 SWAP2 SUB SWAP1 REVERT JUMPDEST DUP3 PUSH1 0x1 PUSH1 0x0 CALLER PUSH20 0xFFFFFFFFFFFFFFFFFFFFFFFFFFFFFFFFFFFFFFFF AND PUSH20 0xFFFFFFFFFFFFFFFFFFFFFFFFFFFFFFFFFFFFFFFF AND DUP2 MSTORE PUSH1 0x20 ADD SWAP1 DUP2 MSTORE PUSH1 0x20 ADD PUSH1 0x0 KECCAK256 PUSH1 0x0 DUP3 DUP3 SLOAD PUSH2 0x9D1 SWAP2 SWAP1 PUSH2 0x12A6 JUMP JUMPDEST SWAP3 POP POP DUP2 SWAP1 SSTORE POP JUMPDEST PUSH1 0x0 DUP1 DUP6 PUSH20 0xFFFFFFFFFFFFFFFFFFFFFFFFFFFFFFFFFFFFFFFF AND DUP6 DUP6 PUSH1 0x40 MLOAD PUSH2 0xA02 SWAP2 SWAP1 PUSH2 0x1316 JUMP JUMPDEST PUSH1 0x0 PUSH1 0x40 MLOAD DUP1 DUP4 SUB DUP2 DUP6 DUP8 GAS CALL SWAP3 POP POP POP RETURNDATASIZE DUP1 PUSH1 0x0 DUP2 EQ PUSH2 0xA3F JUMPI PUSH1 0x40 MLOAD SWAP2 POP PUSH1 0x1F NOT PUSH1 0x3F RETURNDATASIZE ADD AND DUP3 ADD PUSH1 0x40 MSTORE RETURNDATASIZE DUP3 MSTORE RETURNDATASIZE PUSH1 0x0 PUSH1 0x20 DUP5 ADD RETURNDATACOPY PUSH2 0xA44 JUMP JUMPDEST PUSH1 0x60 SWAP2 POP JUMPDEST POP SWAP2 POP SWAP2 POP DUP2 PUSH2 0xA89 JUMPI PUSH1 0x40 MLOAD PUSH32 0x8C379A000000000000000000000000000000000000000000000000000000000 DUP2 MSTORE PUSH1 0x4 ADD PUSH2 0xA80 SWAP1 PUSH2 0x139F JUMP JUMPDEST PUSH1 0x40 MLOAD DUP1 SWAP2 SUB SWAP1 REVERT JUMPDEST DUP1 SWAP3 POP POP POP SWAP4 SWAP3 POP POP POP JUMP JUMPDEST PUSH1 0x0 PUSH1 0x40 MLOAD SWAP1 POP SWAP1 JUMP JUMPDEST PUSH1 0x0 DUP1 REVERT JUMPDEST PUSH1 0x0 DUP1 REVERT JUMPDEST PUSH1 0x0 PUSH20 0xFFFFFFFFFFFFFFFFFFFFFFFFFFFFFFFFFFFFFFFF DUP3 AND SWAP1 POP SWAP2 SWAP1 POP JUMP JUMPDEST PUSH1 0x0 PUSH2 0xAD4 DUP3 PUSH2 0xAA9 JUMP JUMPDEST SWAP1 POP SWAP2 SWAP1 POP JUMP JUMPDEST PUSH2 0xAE4 DUP2 PUSH2 0xAC9 JUMP JUMPDEST DUP2 EQ PUSH2 0xAEF JUMPI PUSH1 0x0 DUP1 REVERT JUMPDEST POP JUMP JUMPDEST PUSH1 0x0 DUP2 CALLDATALOAD SWAP1 POP PUSH2 0xB01 DUP2 PUSH2 0xADB JUMP JUMPDEST SWAP3 SWAP2 POP POP JUMP JUMPDEST PUSH1 0x0 PUSH1 0x20 DUP3 DUP5 SUB SLT ISZERO PUSH2 0xB1D JUMPI PUSH2 0xB1C PUSH2 0xA9F JUMP JUMPDEST JUMPDEST PUSH1 0x0 PUSH2 0xB2B DUP5 DUP3 DUP6 ADD PUSH2 0xAF2 JUMP JUMPDEST SWAP2 POP POP SWAP3 SWAP2 POP POP JUMP JUMPDEST PUSH1 0x0 DUP2 ISZERO ISZERO SWAP1 POP SWAP2 SWAP1 POP JUMP JUMPDEST PUSH2 0xB49 DUP2 PUSH2 0xB34 JUMP JUMPDEST DUP3 MSTORE POP POP JUMP JUMPDEST PUSH1 0x0 PUSH1 0x20 DUP3 ADD SWAP1 POP PUSH2 0xB64 PUSH1 0x0 DUP4 ADD DUP5 PUSH2 0xB40 JUMP JUMPDEST SWAP3 SWAP2 POP POP JUMP JUMPDEST PUSH2 0xB73 DUP2 PUSH2 0xB34 JUMP JUMPDEST DUP2 EQ PUSH2 0xB7E JUMPI PUSH1 0x0 DUP1 REVERT JUMPDEST POP JUMP JUMPDEST PUSH1 0x0 DUP2 CALLDATALOAD SWAP1 POP PUSH2 0xB90 DUP2 PUSH2 0xB6A JUMP JUMPDEST SWAP3 SWAP2 POP POP JUMP JUMPDEST PUSH1 0x0 DUP1 PUSH1 0x40 DUP4 DUP6 SUB SLT ISZERO PUSH2 0xBAD JUMPI PUSH2 0xBAC PUSH2 0xA9F JUMP JUMPDEST JUMPDEST PUSH1 0x0 PUSH2 0xBBB DUP6 DUP3 DUP7 ADD PUSH2 0xAF2 JUMP JUMPDEST SWAP3 POP POP PUSH1 0x20 PUSH2 0xBCC DUP6 DUP3 DUP7 ADD PUSH2 0xB81 JUMP JUMPDEST SWAP2 POP POP SWAP3 POP SWAP3 SWAP1 POP JUMP JUMPDEST PUSH1 0x0 DUP2 SWAP1 POP SWAP2 SWAP1 POP JUMP JUMPDEST PUSH2 0xBE9 DUP2 PUSH2 0xBD6 JUMP JUMPDEST DUP2 EQ PUSH2 0xBF4 JUMPI PUSH1 0x0 DUP1 REVERT JUMPDEST POP JUMP JUMPDEST PUSH1 0x0 DUP2 CALLDATALOAD SWAP1 POP PUSH2 0xC06 DUP2 PUSH2 0xBE0 JUMP JUMPDEST SWAP3 SWAP2 POP POP JUMP JUMPDEST PUSH1 0x0 DUP1 PUSH1 0x40 DUP4 DUP6 SUB SLT ISZERO PUSH2 0xC23 JUMPI PUSH2 0xC22 PUSH2 0xA9F JUMP JUMPDEST JUMPDEST PUSH1 0x0 PUSH2 0xC31 DUP6 DUP3 DUP7 ADD PUSH2 0xAF2 JUMP JUMPDEST SWAP3 POP POP PUSH1 0x20 PUSH2 0xC42 DUP6 DUP3 DUP7 ADD PUSH2 0xBF7 JUMP JUMPDEST SWAP2 POP POP SWAP3 POP SWAP3 SWAP1 POP JUMP JUMPDEST PUSH2 0xC55 DUP2 PUSH2 0xBD6 JUMP JUMPDEST DUP3 MSTORE POP POP JUMP JUMPDEST PUSH1 0x0 PUSH1 0x20 DUP3 ADD SWAP1 POP PUSH2 0xC70 PUSH1 0x0 DUP4 ADD DUP5 PUSH2 0xC4C JUMP JUMPDEST SWAP3 SWAP2 POP POP JUMP JUMPDEST PUSH1 0x0 PUSH2 0xC81 DUP3 PUSH2 0xAA9 JUMP JUMPDEST SWAP1 POP SWAP2 SWAP1 POP JUMP JUMPDEST PUSH2 0xC91 DUP2 PUSH2 0xC76 JUMP JUMPDEST DUP3 MSTORE POP POP JUMP JUMPDEST PUSH1 0x0 PUSH1 0x20 DUP3 ADD SWAP1 POP PUSH2 0xCAC PUSH1 0x0 DUP4 ADD DUP5 PUSH2 0xC88 JUMP JUMPDEST SWAP3 SWAP2 POP POP JUMP JUMPDEST PUSH2 0xCBB DUP2 PUSH2 0xC76 JUMP JUMPDEST DUP2 EQ PUSH2 0xCC6 JUMPI PUSH1 0x0 DUP1 REVERT JUMPDEST POP JUMP JUMPDEST PUSH1 0x0 DUP2 CALLDATALOAD SWAP1 POP PUSH2 0xCD8 DUP2 PUSH2 0xCB2 JUMP JUMPDEST SWAP3 SWAP2 POP POP JUMP JUMPDEST PUSH1 0x0 PUSH1 0x20 DUP3 DUP5 SUB SLT ISZERO PUSH2 0xCF4 JUMPI PUSH2 0xCF3 PUSH2 0xA9F JUMP JUMPDEST JUMPDEST PUSH1 0x0 PUSH2 0xD02 DUP5 DUP3 DUP6 ADD PUSH2 0xCC9 JUMP JUMPDEST SWAP2 POP POP SWAP3 SWAP2 POP POP JUMP JUMPDEST PUSH1 0x0 DUP1 REVERT JUMPDEST PUSH1 0x0 DUP1 REVERT JUMPDEST PUSH1 0x0 PUSH1 0x1F NOT PUSH1 0x1F DUP4 ADD AND SWAP1 POP SWAP2 SWAP1 POP JUMP JUMPDEST PUSH32 0x4E487B7100000000000000000000000000000000000000000000000000000000 PUSH1 0x0 MSTORE PUSH1 0x41 PUSH1 0x4 MSTORE PUSH1 0x24 PUSH1 0x0 REVERT JUMPDEST PUSH2 0xD5E DUP3 PUSH2 0xD15 JUMP JUMPDEST DUP2 ADD DUP2 DUP2 LT PUSH8 0xFFFFFFFFFFFFFFFF DUP3 GT OR ISZERO PUSH2 0xD7D JUMPI PUSH2 0xD7C PUSH2 0xD26 JUMP JUMPDEST JUMPDEST DUP1 PUSH1 0x40 MSTORE POP POP POP JUMP JUMPDEST PUSH1 0x0 PUSH2 0xD90 PUSH2 0xA95 JUMP JUMPDEST SWAP1 POP PUSH2 0xD9C DUP3 DUP3 PUSH2 0xD55 JUMP JUMPDEST SWAP2 SWAP1 POP JUMP JUMPDEST PUSH1 0x0 PUSH8 0xFFFFFFFFFFFFFFFF DUP3 GT ISZERO PUSH2 0xDBC JUMPI PUSH2 0xDBB PUSH2 0xD26 JUMP JUMPDEST JUMPDEST PUSH2 0xDC5 DUP3 PUSH2 0xD15 JUMP JUMPDEST SWAP1 POP PUSH1 0x20 DUP2 ADD SWAP1 POP SWAP2 SWAP1 POP JUMP JUMPDEST DUP3 DUP2 DUP4 CALLDATACOPY PUSH1 0x0 DUP4 DUP4 ADD MSTORE POP POP POP JUMP JUMPDEST PUSH1 0x0 PUSH2 0xDF4 PUSH2 0xDEF DUP5 PUSH2 0xDA1 JUMP JUMPDEST PUSH2 0xD86 JUMP JUMPDEST SWAP1 POP DUP3 DUP2 MSTORE PUSH1 0x20 DUP2 ADD DUP5 DUP5 DUP5 ADD GT ISZERO PUSH2 0xE10 JUMPI PUSH2 0xE0F PUSH2 0xD10 JUMP JUMPDEST JUMPDEST PUSH2 0xE1B DUP5 DUP3 DUP6 PUSH2 0xDD2 JUMP JUMPDEST POP SWAP4 SWAP3 POP POP POP JUMP JUMPDEST PUSH1 0x0 DUP3 PUSH1 0x1F DUP4 ADD SLT PUSH2 0xE38 JUMPI PUSH2 0xE37 PUSH2 0xD0B JUMP JUMPDEST JUMPDEST DUP2 CALLDATALOAD PUSH2 0xE48 DUP5 DUP3 PUSH1 0x20 DUP7 ADD PUSH2 0xDE1 JUMP JUMPDEST SWAP2 POP POP SWAP3 SWAP2 POP POP JUMP JUMPDEST PUSH1 0x0 DUP1 PUSH1 0x0 PUSH1 0x60 DUP5 DUP7 SUB SLT ISZERO PUSH2 0xE6A JUMPI PUSH2 0xE69 PUSH2 0xA9F JUMP JUMPDEST JUMPDEST PUSH1 0x0 PUSH2 0xE78 DUP7 DUP3 DUP8 ADD PUSH2 0xCC9 JUMP JUMPDEST SWAP4 POP POP PUSH1 0x20 PUSH2 0xE89 DUP7 DUP3 DUP8 ADD PUSH2 0xBF7 JUMP JUMPDEST SWAP3 POP POP PUSH1 0x40 DUP5 ADD CALLDATALOAD PUSH8 0xFFFFFFFFFFFFFFFF DUP2 GT ISZERO PUSH2 0xEAA JUMPI PUSH2 0xEA9 PUSH2 0xAA4 JUMP JUMPDEST JUMPDEST PUSH2 0xEB6 DUP7 DUP3 DUP8 ADD PUSH2 0xE23 JUMP JUMPDEST SWAP2 POP POP SWAP3 POP SWAP3 POP SWAP3 JUMP JUMPDEST PUSH1 0x0 DUP2 MLOAD SWAP1 POP SWAP2 SWAP1 POP JUMP JUMPDEST PUSH1 0x0 DUP3 DUP3 MSTORE PUSH1 0x20 DUP3 ADD SWAP1 POP SWAP3 SWAP2 POP POP JUMP JUMPDEST PUSH1 0x0 JUMPDEST DUP4 DUP2 LT ISZERO PUSH2 0xEFA JUMPI DUP1 DUP3 ADD MLOAD DUP2 DUP5 ADD MSTORE PUSH1 0x20 DUP2 ADD SWAP1 POP PUSH2 0xEDF JUMP JUMPDEST DUP4 DUP2 GT ISZERO PUSH2 0xF09 JUMPI PUSH1 0x0 DUP5 DUP5 ADD MSTORE JUMPDEST POP POP POP POP JUMP JUMPDEST PUSH1 0x0 PUSH2 0xF1A DUP3 PUSH2 0xEC0 JUMP JUMPDEST PUSH2 0xF24 DUP2 DUP6 PUSH2 0xECB JUMP JUMPDEST SWAP4 POP PUSH2 0xF34 DUP2 DUP6 PUSH1 0x20 DUP7 ADD PUSH2 0xEDC JUMP JUMPDEST PUSH2 0xF3D DUP2 PUSH2 0xD15 JUMP JUMPDEST DUP5 ADD SWAP2 POP POP SWAP3 SWAP2 POP POP JUMP JUMPDEST PUSH1 0x0 PUSH1 0x20 DUP3 ADD SWAP1 POP DUP2 DUP2 SUB PUSH1 0x0 DUP4 ADD MSTORE PUSH2 0xF62 DUP2 DUP5 PUSH2 0xF0F JUMP JUMPDEST SWAP1 POP SWAP3 SWAP2 POP POP JUMP JUMPDEST PUSH1 0x0 DUP3 DUP3 MSTORE PUSH1 0x20 DUP3 ADD SWAP1 POP SWAP3 SWAP2 POP POP JUMP JUMPDEST PUSH32 0x796F7520617265206E6F7420746865206F776E65722C2061626F7274696E6700 PUSH1 0x0 DUP3 ADD MSTORE POP JUMP JUMPDEST PUSH1 0x0 PUSH2 0xFB1 PUSH1 0x1F DUP4 PUSH2 0xF6A JUMP JUMPDEST SWAP2 POP PUSH2 0xFBC DUP3 PUSH2 0xF7B JUMP JUMPDEST PUSH1 0x20 DUP3 ADD SWAP1 POP SWAP2 SWAP1 POP JUMP JUMPDEST PUSH1 0x0 PUSH1 0x20 DUP3 ADD SWAP1 POP DUP2 DUP2 SUB PUSH1 0x0 DUP4 ADD MSTORE PUSH2 0xFE0 DUP2 PUSH2 0xFA4 JUMP JUMPDEST SWAP1 POP SWAP2 SWAP1 POP JUMP JUMPDEST PUSH32 0x596F7520617265206E6F7420677561726469616E206F6620746869732077616C PUSH1 0x0 DUP3 ADD MSTORE PUSH32 0x6C65742C2061626F7274696E6700000000000000000000000000000000000000 PUSH1 0x20 DUP3 ADD MSTORE POP JUMP JUMPDEST PUSH1 0x0 PUSH2 0x1043 PUSH1 0x2D DUP4 PUSH2 0xF6A JUMP JUMPDEST SWAP2 POP PUSH2 0x104E DUP3 PUSH2 0xFE7 JUMP JUMPDEST PUSH1 0x40 DUP3 ADD SWAP1 POP SWAP2 SWAP1 POP JUMP JUMPDEST PUSH1 0x0 PUSH1 0x20 DUP3 ADD SWAP1 POP DUP2 DUP2 SUB PUSH1 0x0 DUP4 ADD MSTORE PUSH2 0x1072 DUP2 PUSH2 0x1036 JUMP JUMPDEST SWAP1 POP SWAP2 SWAP1 POP JUMP JUMPDEST PUSH32 0x596F7520616C726561647920766F7465642C2061626F7274696E670000000000 PUSH1 0x0 DUP3 ADD MSTORE POP JUMP JUMPDEST PUSH1 0x0 PUSH2 0x10AF PUSH1 0x1B DUP4 PUSH2 0xF6A JUMP JUMPDEST SWAP2 POP PUSH2 0x10BA DUP3 PUSH2 0x1079 JUMP JUMPDEST PUSH1 0x20 DUP3 ADD SWAP1 POP SWAP2 SWAP1 POP JUMP JUMPDEST PUSH1 0x0 PUSH1 0x20 DUP3 ADD SWAP1 POP DUP2 DUP2 SUB PUSH1 0x0 DUP4 ADD MSTORE PUSH2 0x10DE DUP2 PUSH2 0x10A2 JUMP JUMPDEST SWAP1 POP SWAP2 SWAP1 POP JUMP JUMPDEST PUSH32 0x4E487B7100000000000000000000000000000000000000000000000000000000 PUSH1 0x0 MSTORE PUSH1 0x11 PUSH1 0x4 MSTORE PUSH1 0x24 PUSH1 0x0 REVERT JUMPDEST PUSH1 0x0 PUSH2 0x111F DUP3 PUSH2 0xBD6 JUMP JUMPDEST SWAP2 POP PUSH32 0xFFFFFFFFFFFFFFFFFFFFFFFFFFFFFFFFFFFFFFFFFFFFFFFFFFFFFFFFFFFFFFFF DUP3 SUB PUSH2 0x1151 JUMPI PUSH2 0x1150 PUSH2 0x10E5 JUMP JUMPDEST JUMPDEST PUSH1 0x1 DUP3 ADD SWAP1 POP SWAP2 SWAP1 POP JUMP JUMPDEST PUSH32 0x596F7520617265206E6F7420616C6C6F77656420746F2073656E6420616E7974 PUSH1 0x0 DUP3 ADD MSTORE PUSH32 0x68696E672066726F6D207468697320736D61727420636F6E74726163742C2061 PUSH1 0x20 DUP3 ADD MSTORE PUSH32 0x626F7274696E6700000000000000000000000000000000000000000000000000 PUSH1 0x40 DUP3 ADD MSTORE POP JUMP JUMPDEST PUSH1 0x0 PUSH2 0x11DE PUSH1 0x47 DUP4 PUSH2 0xF6A JUMP JUMPDEST SWAP2 POP PUSH2 0x11E9 DUP3 PUSH2 0x115C JUMP JUMPDEST PUSH1 0x60 DUP3 ADD SWAP1 POP SWAP2 SWAP1 POP JUMP JUMPDEST PUSH1 0x0 PUSH1 0x20 DUP3 ADD SWAP1 POP DUP2 DUP2 SUB PUSH1 0x0 DUP4 ADD MSTORE PUSH2 0x120D DUP2 PUSH2 0x11D1 JUMP JUMPDEST SWAP1 POP SWAP2 SWAP1 POP JUMP JUMPDEST PUSH32 0x596F752061726520747279696E6720746F2073656E64206D6F7265207468616E PUSH1 0x0 DUP3 ADD MSTORE PUSH32 0x20796F752061726520616C6C6F77656420746F2C2061626F7274696E67000000 PUSH1 0x20 DUP3 ADD MSTORE POP JUMP JUMPDEST PUSH1 0x0 PUSH2 0x1270 PUSH1 0x3D DUP4 PUSH2 0xF6A JUMP JUMPDEST SWAP2 POP PUSH2 0x127B DUP3 PUSH2 0x1214 JUMP JUMPDEST PUSH1 0x40 DUP3 ADD SWAP1 POP SWAP2 SWAP1 POP JUMP JUMPDEST PUSH1 0x0 PUSH1 0x20 DUP3 ADD SWAP1 POP DUP2 DUP2 SUB PUSH1 0x0 DUP4 ADD MSTORE PUSH2 0x129F DUP2 PUSH2 0x1263 JUMP JUMPDEST SWAP1 POP SWAP2 SWAP1 POP JUMP JUMPDEST PUSH1 0x0 PUSH2 0x12B1 DUP3 PUSH2 0xBD6 JUMP JUMPDEST SWAP2 POP PUSH2 0x12BC DUP4 PUSH2 0xBD6 JUMP JUMPDEST SWAP3 POP DUP3 DUP3 LT ISZERO PUSH2 0x12CF JUMPI PUSH2 0x12CE PUSH2 0x10E5 JUMP JUMPDEST JUMPDEST DUP3 DUP3 SUB SWAP1 POP SWAP3 SWAP2 POP POP JUMP JUMPDEST PUSH1 0x0 DUP2 SWAP1 POP SWAP3 SWAP2 POP POP JUMP JUMPDEST PUSH1 0x0 PUSH2 0x12F0 DUP3 PUSH2 0xEC0 JUMP JUMPDEST PUSH2 0x12FA DUP2 DUP6 PUSH2 0x12DA JUMP JUMPDEST SWAP4 POP PUSH2 0x130A DUP2 DUP6 PUSH1 0x20 DUP7 ADD PUSH2 0xEDC JUMP JUMPDEST DUP1 DUP5 ADD SWAP2 POP POP SWAP3 SWAP2 POP POP JUMP JUMPDEST PUSH1 0x0 PUSH2 0x1322 DUP3 DUP5 PUSH2 0x12E5 JUMP JUMPDEST SWAP2 POP DUP2 SWAP1 POP SWAP3 SWAP2 POP POP JUMP JUMPDEST PUSH32 0x41626F7274696E672C2063616C6C20776173206E6F7420737563636573736675 PUSH1 0x0 DUP3 ADD MSTORE PUSH32 0x6C00000000000000000000000000000000000000000000000000000000000000 PUSH1 0x20 DUP3 ADD MSTORE POP JUMP JUMPDEST PUSH1 0x0 PUSH2 0x1389 PUSH1 0x21 DUP4 PUSH2 0xF6A JUMP JUMPDEST SWAP2 POP PUSH2 0x1394 DUP3 PUSH2 0x132D JUMP JUMPDEST PUSH1 0x40 DUP3 ADD SWAP1 POP SWAP2 SWAP1 POP JUMP JUMPDEST PUSH1 0x0 PUSH1 0x20 DUP3 ADD SWAP1 POP DUP2 DUP2 SUB PUSH1 0x0 DUP4 ADD MSTORE PUSH2 0x13B8 DUP2 PUSH2 0x137C JUMP JUMPDEST SWAP1 POP SWAP2 SWAP1 POP JUMP INVALID LOG2 PUSH5 0x6970667358 0x22 SLT KECCAK256 PUSH13 0xF1E8129C3D265F78C8CCB01B03 0xEF 0x29 DUP4 SHR 0x5E SWAP12 0xBA 0xD6 0xEB 0x1E LOG2 0xE3 PUSH4 0x472E0890 DUP6 PUSH5 0x736F6C6343 STOP ADDMOD 0xF STOP CALLER "
				},
				"gasEstimates": {
					"creation": {
						"codeDepositCost": "1021800",
						"executionCost": "25327",
						"totalCost": "1047127"
					},
					"external": {
						"allowance(address)": "2814",
						"confirmationsFromGuardiansForReset()": "351",
						"guardians(address)": "2846",
						"isAllowedToSend(address)": "2868",
						"owner()": "2555",
						"proposeNewOwner(address)": "63045",
						"setAllowance(address,uint256)": "49460",
						"setGuardian(address,bool)": "27203",
						"transfer(address,uint256,bytes)": "infinite"
					}
				},
				"methodIdentifiers": {
					"allowance(address)": "3e5beab9",
					"confirmationsFromGuardiansForReset()": "83012be1",
					"guardians(address)": "0633b14a",
					"isAllowedToSend(address)": "0bc605ad",
					"owner()": "8da5cb5b",
					"proposeNewOwner(address)": "b1f8100d",
					"setAllowance(address,uint256)": "310ec4a7",
					"setGuardian(address,bool)": "2b8a1c5a",
					"transfer(address,uint256,bytes)": "be45fd62"
				}
			},
			"storageLayout": {
				"storage": [
					{
						"astId": 20,
						"contract": "contracts/SmartContractWallet.sol:SmartContractWallet",
						"label": "owner",
						"offset": 0,
						"slot": "0",
						"type": "t_address_payable"
					},
					{
						"astId": 24,
						"contract": "contracts/SmartContractWallet.sol:SmartContractWallet",
						"label": "allowance",
						"offset": 0,
						"slot": "1",
						"type": "t_mapping(t_address,t_uint256)"
					},
					{
						"astId": 28,
						"contract": "contracts/SmartContractWallet.sol:SmartContractWallet",
						"label": "isAllowedToSend",
						"offset": 0,
						"slot": "2",
						"type": "t_mapping(t_address,t_bool)"
					},
					{
						"astId": 32,
						"contract": "contracts/SmartContractWallet.sol:SmartContractWallet",
						"label": "guardians",
						"offset": 0,
						"slot": "3",
						"type": "t_mapping(t_address,t_bool)"
					},
					{
						"astId": 34,
						"contract": "contracts/SmartContractWallet.sol:SmartContractWallet",
						"label": "nextOwner",
						"offset": 0,
						"slot": "4",
						"type": "t_address_payable"
					},
					{
						"astId": 40,
						"contract": "contracts/SmartContractWallet.sol:SmartContractWallet",
						"label": "nextOwnerGuardianVotedBool",
						"offset": 0,
						"slot": "5",
						"type": "t_mapping(t_address,t_mapping(t_address,t_bool))"
					},
					{
						"astId": 42,
						"contract": "contracts/SmartContractWallet.sol:SmartContractWallet",
						"label": "guardiansResetCount",
						"offset": 0,
						"slot": "6",
						"type": "t_uint256"
					}
				],
				"types": {
					"t_address": {
						"encoding": "inplace",
						"label": "address",
						"numberOfBytes": "20"
					},
					"t_address_payable": {
						"encoding": "inplace",
						"label": "address payable",
						"numberOfBytes": "20"
					},
					"t_bool": {
						"encoding": "inplace",
						"label": "bool",
						"numberOfBytes": "1"
					},
					"t_mapping(t_address,t_bool)": {
						"encoding": "mapping",
						"key": "t_address",
						"label": "mapping(address => bool)",
						"numberOfBytes": "32",
						"value": "t_bool"
					},
					"t_mapping(t_address,t_mapping(t_address,t_bool))": {
						"encoding": "mapping",
						"key": "t_address",
						"label": "mapping(address => mapping(address => bool))",
						"numberOfBytes": "32",
						"value": "t_mapping(t_address,t_bool)"
					},
					"t_mapping(t_address,t_uint256)": {
						"encoding": "mapping",
						"key": "t_address",
						"label": "mapping(address => uint256)",
						"numberOfBytes": "32",
						"value": "t_uint256"
					},
					"t_uint256": {
						"encoding": "inplace",
						"label": "uint256",
						"numberOfBytes": "32"
					}
				}
			},
			"userdoc": {
				"kind": "user",
				"methods": {},
				"version": 1
			}
		}
	}
}